{
  "contractName": "Contest",
  "abi": [
    {
      "inputs": [
        {
          "name": "_id",
          "type": "int256"
        },
        {
          "name": "_title",
          "type": "string"
        },
        {
          "name": "_category",
          "type": "string"
        },
        {
          "name": "_description",
          "type": "string"
        },
        {
          "name": "_winner_id",
          "type": "int256"
        },
        {
          "name": "_organizer",
          "type": "address[]"
        },
        {
          "name": "_reward",
          "type": "int256"
        },
        {
          "name": "_deadline",
          "type": "string"
        }
      ],
      "payable": false,
      "stateMutability": "nonpayable",
      "type": "constructor"
    },
    {
      "constant": true,
      "inputs": [],
      "name": "get_contest_all",
      "outputs": [
        {
          "name": "owner_",
          "type": "address"
        },
        {
          "name": "id_",
          "type": "int256"
        },
        {
          "name": "title_",
          "type": "string"
        },
        {
          "name": "category_",
          "type": "string"
        },
        {
          "name": "description_",
          "type": "string"
        },
        {
          "name": "winner_id_",
          "type": "int256"
        },
        {
          "name": "organizer_",
          "type": "address[]"
        },
        {
          "name": "reward_",
          "type": "int256"
        },
        {
          "name": "deadline_",
          "type": "string"
        }
      ],
      "payable": false,
      "stateMutability": "view",
      "type": "function"
    },
    {
      "constant": true,
      "inputs": [],
      "name": "get_organizer",
      "outputs": [
        {
          "name": "",
          "type": "address[]"
        }
      ],
      "payable": false,
      "stateMutability": "view",
      "type": "function"
    },
    {
      "constant": true,
      "inputs": [],
      "name": "get_winner",
      "outputs": [
        {
          "name": "",
          "type": "int256"
        }
      ],
      "payable": false,
      "stateMutability": "view",
      "type": "function"
    },
    {
      "constant": false,
      "inputs": [
        {
          "name": "_id",
          "type": "int256"
        },
        {
          "name": "_caller",
          "type": "address"
        }
      ],
      "name": "set_winner",
      "outputs": [
        {
          "name": "",
          "type": "bool"
        }
      ],
      "payable": false,
      "stateMutability": "nonpayable",
      "type": "function"
    }
  ],
  "bytecode": "0x608060405234801561001057600080fd5b5060405162000b2538038062000b258339810180604052810190808051906020019092919080518201929190602001805182019291906020018051820192919060200180519060200190929190805182019291906020018051906020019092919080518201929190505050336000806101000a81548173ffffffffffffffffffffffffffffffffffffffff021916908373ffffffffffffffffffffffffffffffffffffffff1602179055508760018190555086600290805190602001906100d8929190610150565b5085600390805190602001906100ef929190610150565b508460049080519060200190610106929190610150565b508360058190555082600690805190602001906101249291906101d0565b50816007819055508060089080519060200190610142929190610150565b5050505050505050506102c2565b828054600181600116156101000203166002900490600052602060002090601f016020900481019282601f1061019157805160ff19168380011785556101bf565b828001600101855582156101bf579182015b828111156101be5782518255916020019190600101906101a3565b5b5090506101cc919061025a565b5090565b828054828255906000526020600020908101928215610249579160200282015b828111156102485782518260006101000a81548173ffffffffffffffffffffffffffffffffffffffff021916908373ffffffffffffffffffffffffffffffffffffffff160217905550916020019190600101906101f0565b5b509050610256919061027f565b5090565b61027c91905b80821115610278576000816000905550600101610260565b5090565b90565b6102bf91905b808211156102bb57600081816101000a81549073ffffffffffffffffffffffffffffffffffffffff021916905550600101610285565b5090565b90565b61085380620002d26000396000f300608060405260043610610062576000357c0100000000000000000000000000000000000000000000000000000000900463ffffffff16806344f38f03146100675780634ad61706146100cc578063a9ef164514610330578063bb4c4f1c1461039c575b600080fd5b34801561007357600080fd5b506100b260048036038101908080359060200190929190803573ffffffffffffffffffffffffffffffffffffffff1690602001909291905050506103c7565b604051808215151515815260200191505060405180910390f35b3480156100d857600080fd5b506100e1610435565b604051808a73ffffffffffffffffffffffffffffffffffffffff1673ffffffffffffffffffffffffffffffffffffffff168152602001898152602001806020018060200180602001888152602001806020018781526020018060200186810386528d818151815260200191508051906020019080838360005b8381101561017557808201518184015260208101905061015a565b50505050905090810190601f1680156101a25780820380516001836020036101000a031916815260200191505b5086810385528c818151815260200191508051906020019080838360005b838110156101db5780820151818401526020810190506101c0565b50505050905090810190601f1680156102085780820380516001836020036101000a031916815260200191505b5086810384528b818151815260200191508051906020019080838360005b83811015610241578082015181840152602081019050610226565b50505050905090810190601f16801561026e5780820380516001836020036101000a031916815260200191505b50868103835289818151815260200191508051906020019060200280838360005b838110156102aa57808201518184015260208101905061028f565b50505050905001868103825287818151815260200191508051906020019080838360005b838110156102e95780820151818401526020810190506102ce565b50505050905090810190601f1680156103165780820380516001836020036101000a031916815260200191505b509e50505050505050505050505050505060405180910390f35b34801561033c57600080fd5b5061034561078f565b6040518080602001828103825283818151815260200191508051906020019060200280838360005b8381101561038857808201518184015260208101905061036d565b505050509050019250505060405180910390f35b3480156103a857600080fd5b506103b161081d565b6040518082815260200191505060405180910390f35b60008060009054906101000a900473ffffffffffffffffffffffffffffffffffffffff1673ffffffffffffffffffffffffffffffffffffffff168273ffffffffffffffffffffffffffffffffffffffff1614151561042457600080fd5b826005819055506001905092915050565b600080606080606060006060600060606000809054906101000a900473ffffffffffffffffffffffffffffffffffffffff1660015460026003600460055460066007546008868054600181600116156101000203166002900480601f01602080910402602001604051908101604052809291908181526020018280546001816001161561010002031660029004801561050f5780601f106104e45761010080835404028352916020019161050f565b820191906000526020600020905b8154815290600101906020018083116104f257829003601f168201915b50505050509650858054600181600116156101000203166002900480601f0160208091040260200160405190810160405280929190818152602001828054600181600116156101000203166002900480156105ab5780601f10610580576101008083540402835291602001916105ab565b820191906000526020600020905b81548152906001019060200180831161058e57829003601f168201915b50505050509550848054600181600116156101000203166002900480601f0160208091040260200160405190810160405280929190818152602001828054600181600116156101000203166002900480156106475780601f1061061c57610100808354040283529160200191610647565b820191906000526020600020905b81548152906001019060200180831161062a57829003601f168201915b50505050509450828054806020026020016040519081016040528092919081815260200182805480156106cf57602002820191906000526020600020905b8160009054906101000a900473ffffffffffffffffffffffffffffffffffffffff1673ffffffffffffffffffffffffffffffffffffffff1681526020019060010190808311610685575b50505050509250808054600181600116156101000203166002900480601f01602080910402602001604051908101604052809291908181526020018280546001816001161561010002031660029004801561076b5780601f106107405761010080835404028352916020019161076b565b820191906000526020600020905b81548152906001019060200180831161074e57829003601f168201915b50505050509050985098509850985098509850985098509850909192939495969798565b6060600680548060200260200160405190810160405280929190818152602001828054801561081357602002820191906000526020600020905b8160009054906101000a900473ffffffffffffffffffffffffffffffffffffffff1673ffffffffffffffffffffffffffffffffffffffff16815260200190600101908083116107c9575b5050505050905090565b60006005549050905600a165627a7a72305820d9414bde8646c3e3e162ac90ee2b581f1cbff14fa6be0da50b8dd9791182176b0029",
  "source": "/*\n * Contest contract\n * Has the same function with model contract\n * Each contest contract represents a contest\n * The method in this contract can be called using the contest contract address\n * e.g. address.get_count()\n *\n * @File instruction: constructor, variables, getter, setter\n * @Auther: Chenhan Ma, Kevin, kevinma2222@gmail.com\n */\n\npragma solidity ^0.4.22;\n\ncontract Contest {\n    address owner;\n    int id;\n    string title;\n    string category;\n    string description;\n    int winner_id;\n    address[] organizer;\n    int reward;\n    string deadline;\n    bool ended;\n\n\n    constructor(\n        int _id,\n        string _title,\n        string _category,\n        string _description,\n        int _winner_id,\n        address[] _organizer,\n        int _reward,\n        string _deadline\n    )\n        public\n    {\n        owner       = msg.sender;\n        id          = _id;\n        title       = _title;\n        category    = _category;\n        description = _description;\n        winner_id   = _winner_id;\n        organizer   = _organizer;\n        reward      = _reward;\n        deadline    = _deadline;\n    }\n\n\n    function get_contest_all()\n        public\n        constant\n        returns(\n            address owner_,\n            int id_,\n            string title_,\n            string category_,\n            string description_,\n            int winner_id_,\n            address[] organizer_,\n            int reward_,\n            string deadline_\n        )\n    {\n        return (\n            owner,\n            id,\n            title,\n            category,\n            description,\n            winner_id,\n            organizer,\n            reward,\n            deadline\n        );\n    }\n\n\n    function get_organizer() public view returns(address[]){\n        return organizer;\n    }\n\n\n    function get_winner() public view returns(int){\n        return winner_id;\n    }\n\n\n    // Only the owner of this contest can set the winner\n    function set_winner(int _id, address _caller) public returns(bool){\n        require(_caller==owner);\n        winner_id = _id;\n        return true;\n    }\n\n}\n",
  "sourcePath": "/Users/machenhan/Documents/FinalProject/git_version/BlockchainRevolution/contracts/Contest.sol",
  "compiler": {
    "name": "solc",
    "version": "0.4.24+commit.e67f0147.Emscripten.clang"
  },
  "schemaVersion": "2.0.0",
  "updatedAt": "2018-06-05T14:44:42.072Z"
}