{
  "contractName": "Contest",
  "abi": [
    {
      "constant": true,
      "inputs": [],
      "name": "competitionCount",
      "outputs": [
        {
          "name": "",
          "type": "uint256"
        }
      ],
      "payable": false,
      "stateMutability": "view",
      "type": "function"
    },
    {
      "constant": true,
      "inputs": [
        {
          "name": "",
          "type": "uint256"
        }
      ],
      "name": "competition_ids",
      "outputs": [
        {
          "name": "",
          "type": "uint256"
        }
      ],
      "payable": false,
      "stateMutability": "view",
      "type": "function"
    },
    {
      "inputs": [],
      "payable": false,
      "stateMutability": "nonpayable",
      "type": "constructor"
    },
    {
      "constant": true,
      "inputs": [],
      "name": "get_competitions",
      "outputs": [
        {
          "name": "",
          "type": "uint256[]"
        }
      ],
      "payable": false,
      "stateMutability": "view",
      "type": "function"
    },
    {
      "constant": true,
      "inputs": [],
      "name": "get_competition_counts",
      "outputs": [
        {
          "name": "",
          "type": "uint256"
        }
      ],
      "payable": false,
      "stateMutability": "view",
      "type": "function"
    },
    {
      "constant": true,
      "inputs": [
        {
          "name": "_id",
          "type": "uint256"
        }
      ],
      "name": "get_competition_models",
      "outputs": [
        {
          "name": "",
          "type": "uint256[]"
        }
      ],
      "payable": false,
      "stateMutability": "view",
      "type": "function"
    },
    {
      "constant": true,
      "inputs": [
        {
          "name": "_id",
          "type": "uint256"
        }
      ],
      "name": "get_competition_details",
      "outputs": [
        {
          "name": "",
          "type": "uint256"
        },
        {
          "name": "",
          "type": "bytes32"
        },
        {
          "name": "",
          "type": "bytes32"
        },
        {
          "name": "",
          "type": "address"
        },
        {
          "name": "",
          "type": "int256"
        }
      ],
      "payable": false,
      "stateMutability": "view",
      "type": "function"
    }
  ],
  "bytecode": "0x608060405234801561001057600080fd5b50336000806101000a81548173ffffffffffffffffffffffffffffffffffffffff021916908373ffffffffffffffffffffffffffffffffffffffff16021790555061059a806100606000396000f300608060405260043610610078576000357c0100000000000000000000000000000000000000000000000000000000900463ffffffff168063071b7c481461007d5780632681d395146100e95780633f8c17a4146101825780635d6b3e9814610204578063a16817701461022f578063add019d01461025a575b600080fd5b34801561008957600080fd5b5061009261029b565b6040518080602001828103825283818151815260200191508051906020019060200280838360005b838110156100d55780820151818401526020810190506100ba565b505050509050019250505060405180910390f35b3480156100f557600080fd5b50610114600480360381019080803590602001909291905050506102f3565b60405180868152602001856000191660001916815260200184600019166000191681526020018373ffffffffffffffffffffffffffffffffffffffff1673ffffffffffffffffffffffffffffffffffffffff1681526020018281526020019550505050505060405180910390f35b34801561018e57600080fd5b506101ad6004803603810190808035906020019092919050505061045e565b6040518080602001828103825283818151815260200191508051906020019060200280838360005b838110156101f05780820151818401526020810190506101d5565b505050509050019250505060405180910390f35b34801561021057600080fd5b506102196104cc565b6040518082815260200191505060405180910390f35b34801561023b57600080fd5b506102446104d9565b6040518082815260200191505060405180910390f35b34801561026657600080fd5b50610285600480360381019080803590602001909291905050506104df565b6040518082815260200191505060405180910390f35b606060028054806020026020016040519081016040528092919081815260200182805480156102e957602002820191906000526020600020905b8154815260200190600101908083116102d5575b5050505050905090565b6000806000806000610303610502565b6001600088815260200190815260200160002061012060405190810160405290816000820154815260200160018201546000191660001916815260200160028201546000191660001916815260200160038201546000191660001916815260200160048201548152602001600582018054806020026020016040519081016040528092919081815260200182805480156103bc57602002820191906000526020600020905b8154815260200190600101908083116103a8575b505050505081526020016006820160009054906101000a900473ffffffffffffffffffffffffffffffffffffffff1673ffffffffffffffffffffffffffffffffffffffff1673ffffffffffffffffffffffffffffffffffffffff1681526020016007820154815260200160088201548152505090508060000151816020015182604001518360c001518460e00151955095509550955095505091939590929450565b6060600160008381526020019081526020016000206005018054806020026020016040519081016040528092919081815260200182805480156104c057602002820191906000526020600020905b8154815260200190600101908083116104ac575b50505050509050919050565b6000600280549050905090565b60035481565b6002818154811015156104ee57fe5b906000526020600020016000915090505481565b61012060405190810160405280600081526020016000801916815260200160008019168152602001600080191681526020016000815260200160608152602001600073ffffffffffffffffffffffffffffffffffffffff168152602001600081526020016000815250905600a165627a7a72305820befe9d46a3ce3e26a4ef414df315c20458403930e9bf83710ea116962d6818f80029",
  "source": "pragma solidity ^0.4.22;\n\ncontract Contest {\n  address owner;\n  constructor() public{\n    owner = msg.sender;\n  }\n\n  struct Competition{\n    uint id;\n    bytes32 title;\n    bytes32 category;\n    bytes32 description;\n    uint winner_id;\n    uint[] models;\n    address organizer;\n    int256 reward;\n    int256 deadline;\n  }\n\n  mapping (uint => Competition) competitions;\n  uint[] public competition_ids;\n  uint public competitionCount;\n\n  function get_competitions()\n    view public\n    returns (uint[])\n  {\n      return competition_ids;\n  }\n\n  function get_competition_counts()\n    view public\n    returns (uint)\n  {\n    return competition_ids.length;\n  }\n\n  function get_competition_models(uint _id)\n    view public\n    returns(uint[])\n  {\n    return competitions[_id].models;\n  }\n\n  function get_competition_details(uint _id)\n    view public\n    returns (uint, bytes32, bytes32, address, int256)\n    {\n      Competition memory c = competitions[_id];\n      return (c.id, c.title, c.category, c.organizer, c.reward);\n    }\n\n  /* function create_competition() */\n}\n",
  "sourcePath": "/Users/machenhan/Documents/FinalProject/git_version/BlockchainRevolution/contracts/Contest.sol",
  "compiler": {
    "name": "solc",
    "version": "0.4.24+commit.e67f0147.Emscripten.clang"
  },
  "schemaVersion": "2.0.0",
  "updatedAt": "2018-05-23T16:06:01.164Z"
}