{
  "contractName": "Contest",
  "abi": [
    {
      "constant": true,
      "inputs": [],
      "name": "competitionCount",
      "outputs": [
        {
          "name": "",
          "type": "uint256"
        }
      ],
      "payable": false,
      "stateMutability": "view",
      "type": "function"
    },
    {
      "constant": true,
      "inputs": [
        {
          "name": "",
          "type": "uint256"
        }
      ],
      "name": "competition_ids",
      "outputs": [
        {
          "name": "",
          "type": "uint256"
        }
      ],
      "payable": false,
      "stateMutability": "view",
      "type": "function"
    },
    {
      "inputs": [],
      "payable": false,
      "stateMutability": "nonpayable",
      "type": "constructor"
    },
    {
      "constant": true,
      "inputs": [],
      "name": "get_competitions",
      "outputs": [
        {
          "name": "",
          "type": "uint256[]"
        }
      ],
      "payable": false,
      "stateMutability": "view",
      "type": "function"
    },
    {
      "constant": true,
      "inputs": [],
      "name": "get_competition_counts",
      "outputs": [
        {
          "name": "",
          "type": "uint256"
        }
      ],
      "payable": false,
      "stateMutability": "view",
      "type": "function"
    },
    {
      "constant": true,
      "inputs": [
        {
          "name": "_id",
          "type": "uint256"
        }
      ],
      "name": "get_competition_models",
      "outputs": [
        {
          "name": "",
          "type": "uint256[]"
        }
      ],
      "payable": false,
      "stateMutability": "view",
      "type": "function"
    },
    {
      "constant": true,
      "inputs": [
        {
          "name": "_id",
          "type": "uint256"
        }
      ],
      "name": "get_competition_details",
      "outputs": [
        {
          "name": "",
          "type": "uint256"
        },
        {
          "name": "",
          "type": "bytes32"
        },
        {
          "name": "",
          "type": "bytes32"
        },
        {
          "name": "",
          "type": "address"
        },
        {
          "name": "",
          "type": "int256"
        }
      ],
      "payable": false,
      "stateMutability": "view",
      "type": "function"
    }
  ],
  "bytecode": "0x6060604052341561000f57600080fd5b336000806101000a81548173ffffffffffffffffffffffffffffffffffffffff021916908373ffffffffffffffffffffffffffffffffffffffff1602179055506105b18061005e6000396000f300606060405260043610610078576000357c0100000000000000000000000000000000000000000000000000000000900463ffffffff168063071b7c481461007d5780632681d395146100e75780633f8c17a4146101765780635d6b3e98146101ee578063a168177014610217578063add019d014610240575b600080fd5b341561008857600080fd5b610090610277565b6040518080602001828103825283818151815260200191508051906020019060200280838360005b838110156100d35780820151818401526020810190506100b8565b505050509050019250505060405180910390f35b34156100f257600080fd5b61010860048080359060200190919050506102d5565b60405180868152602001856000191660001916815260200184600019166000191681526020018373ffffffffffffffffffffffffffffffffffffffff1673ffffffffffffffffffffffffffffffffffffffff1681526020018281526020019550505050505060405180910390f35b341561018157600080fd5b6101976004808035906020019091905050610440565b6040518080602001828103825283818151815260200191508051906020019060200280838360005b838110156101da5780820151818401526020810190506101bf565b505050509050019250505060405180910390f35b34156101f957600080fd5b6102016104b4565b6040518082815260200191505060405180910390f35b341561022257600080fd5b61022a6104c1565b6040518082815260200191505060405180910390f35b341561024b57600080fd5b61026160048080359060200190919050506104c7565b6040518082815260200191505060405180910390f35b61027f6104eb565b60028054806020026020016040519081016040528092919081815260200182805480156102cb57602002820191906000526020600020905b8154815260200190600101908083116102b7575b5050505050905090565b60008060008060006102e56104ff565b60016000888152602001908152602001600020610120604051908101604052908160008201548152602001600182015460001916600019168152602001600282015460001916600019168152602001600382015460001916600019168152602001600482015481526020016005820180548060200260200160405190810160405280929190818152602001828054801561039e57602002820191906000526020600020905b81548152602001906001019080831161038a575b505050505081526020016006820160009054906101000a900473ffffffffffffffffffffffffffffffffffffffff1673ffffffffffffffffffffffffffffffffffffffff1673ffffffffffffffffffffffffffffffffffffffff1681526020016007820154815260200160088201548152505090508060000151816020015182604001518360c001518460e00151955095509550955095505091939590929450565b6104486104eb565b600160008381526020019081526020016000206005018054806020026020016040519081016040528092919081815260200182805480156104a857602002820191906000526020600020905b815481526020019060010190808311610494575b50505050509050919050565b6000600280549050905090565b60035481565b6002818154811015156104d657fe5b90600052602060002090016000915090505481565b602060405190810160405280600081525090565b610120604051908101604052806000815260200160008019168152602001600080191681526020016000801916815260200160008152602001610540610571565b8152602001600073ffffffffffffffffffffffffffffffffffffffff16815260200160008152602001600081525090565b6020604051908101604052806000815250905600a165627a7a72305820ee9678081b25b4c1866e36a2c29f879741433df9091388b24954653274cdd28c0029",
  "source": "pragma solidity ^0.4.18;\n\ncontract Contest {\n  address owner;\n  function Contest() public{\n    owner = msg.sender;\n  }\n\n  struct Competition{\n    uint id;\n    bytes32 title;\n    bytes32 category;\n    bytes32 description;\n    uint winner_id;\n    uint[] models;\n    address organizer;\n    int256 reward;\n    int256 deadline;\n  }\n\n  mapping (uint => Competition) competitions;\n  uint[] public competition_ids;\n  uint public competitionCount;\n\n  function get_competitions()\n    view public\n    returns (uint[])\n  {\n      return competition_ids;\n  }\n\n  function get_competition_counts()\n    view public\n    returns (uint)\n  {\n    return competition_ids.length;\n  }\n\n  function get_competition_models(uint _id)\n    view public\n    returns(uint[])\n  {\n    return competitions[_id].models;\n  }\n\n  function get_competition_details(uint _id)\n    view public\n    returns (uint, bytes32, bytes32, address, int256)\n    {\n      Competition memory c = competitions[_id];\n      return (c.id, c.title, c.category, c.organizer, c.reward);\n    }\n\n  /* function create_competition() */\n}\n",
  "sourcePath": "/Users/machenhan/Documents/FinalProject/git_version/BlockchainRevolution/contracts/Contest.sol",
  "compiler": {
    "name": "solc",
    "version": "0.4.21+commit.dfe3193c.Emscripten.clang"
  },
  "schemaVersion": "2.0.0",
  "updatedAt": "2018-04-30T13:24:32.739Z"
}