{
  "contractName": "MarketPlace",
  "abi": [
    {
      "inputs": [],
      "payable": false,
      "stateMutability": "nonpayable",
      "type": "constructor"
    },
    {
      "constant": false,
      "inputs": [],
      "name": "kill",
      "outputs": [],
      "payable": false,
      "stateMutability": "nonpayable",
      "type": "function"
    },
    {
      "constant": false,
      "inputs": [],
      "name": "upload",
      "outputs": [],
      "payable": false,
      "stateMutability": "nonpayable",
      "type": "function"
    },
    {
      "constant": false,
      "inputs": [],
      "name": "getModel",
      "outputs": [],
      "payable": false,
      "stateMutability": "nonpayable",
      "type": "function"
    }
  ],
  "bytecode": "0x6060604052341561000f57600080fd5b336000806101000a81548173ffffffffffffffffffffffffffffffffffffffff021916908373ffffffffffffffffffffffffffffffffffffffff16021790555061015c8061005e6000396000f300606060405260043610610057576000357c0100000000000000000000000000000000000000000000000000000000900463ffffffff1680633f749da51461005c57806341c0e1b514610071578063a0bfa1e014610086575b600080fd5b341561006757600080fd5b61006f61009b565b005b341561007c57600080fd5b61008461009d565b005b341561009157600080fd5b61009961012e565b005b565b6000809054906101000a900473ffffffffffffffffffffffffffffffffffffffff1673ffffffffffffffffffffffffffffffffffffffff163373ffffffffffffffffffffffffffffffffffffffff16141561012c576000809054906101000a900473ffffffffffffffffffffffffffffffffffffffff1673ffffffffffffffffffffffffffffffffffffffff16ff5b565b5600a165627a7a723058200565df8a926f3a0da0fdedb35835b8e95b970e0f3541b8f28c7510fadac144f50029",
  "source": "pragma solidity ^0.4.18;\n\ncontract MarketPlace {\n\n\n  /* Define variable owner of the type address */\n  address owner;\n  address[] models;\n  /* This function is executed at initialization and sets the owner of the contract */\n  function MarketPlace() public{\n    owner = msg.sender;\n  }\n\n  struct User {\n    address user_address;\n    address[] submitted_data;\n    uint balance;\n\n\n\n\n  }\n\n  mapping (address => User) users;\n\n  function kill() public{\n    if(msg.sender==owner)\n      selfdestruct(owner);\n  }\n\n  function upload() public{\n\n  }\n\n  function getModel() public{\n\n  }\n}\n",
  "sourcePath": "/Users/machenhan/Documents/FinalProject/git_version/BlockchainRevolution/contracts/MarketPlace.sol",
  "compiler": {
    "name": "solc",
    "version": "0.4.21+commit.dfe3193c.Emscripten.clang"
  },
  "schemaVersion": "2.0.0",
  "updatedAt": "2018-04-23T05:29:55.805Z"
}