{
  "contractName": "MarketPlace",
  "abi": [
    {
      "constant": true,
      "inputs": [],
      "name": "best_submission_index",
      "outputs": [
        {
          "name": "",
          "type": "uint256"
        }
      ],
      "payable": false,
      "stateMutability": "view",
      "type": "function"
    },
    {
      "constant": true,
      "inputs": [],
      "name": "best_submission_accuracy",
      "outputs": [
        {
          "name": "",
          "type": "int256"
        }
      ],
      "payable": false,
      "stateMutability": "view",
      "type": "function"
    },
    {
      "constant": true,
      "inputs": [],
      "name": "model_count",
      "outputs": [
        {
          "name": "",
          "type": "uint256"
        }
      ],
      "payable": false,
      "stateMutability": "view",
      "type": "function"
    },
    {
      "inputs": [],
      "payable": false,
      "stateMutability": "nonpayable",
      "type": "constructor"
    },
    {
      "payable": true,
      "stateMutability": "payable",
      "type": "fallback"
    },
    {
      "constant": false,
      "inputs": [
        {
          "name": "x",
          "type": "uint256"
        }
      ],
      "name": "set",
      "outputs": [],
      "payable": false,
      "stateMutability": "nonpayable",
      "type": "function"
    },
    {
      "constant": false,
      "inputs": [
        {
          "name": "_num",
          "type": "uint256"
        }
      ],
      "name": "set_default",
      "outputs": [],
      "payable": false,
      "stateMutability": "nonpayable",
      "type": "function"
    },
    {
      "constant": true,
      "inputs": [],
      "name": "get",
      "outputs": [
        {
          "name": "",
          "type": "uint256"
        }
      ],
      "payable": false,
      "stateMutability": "view",
      "type": "function"
    },
    {
      "constant": true,
      "inputs": [],
      "name": "test",
      "outputs": [
        {
          "name": "",
          "type": "string"
        }
      ],
      "payable": false,
      "stateMutability": "view",
      "type": "function"
    },
    {
      "constant": true,
      "inputs": [],
      "name": "get_count",
      "outputs": [
        {
          "name": "",
          "type": "uint256"
        }
      ],
      "payable": false,
      "stateMutability": "view",
      "type": "function"
    },
    {
      "constant": true,
      "inputs": [
        {
          "name": "_id",
          "type": "uint256"
        }
      ],
      "name": "get_category",
      "outputs": [
        {
          "name": "",
          "type": "string"
        }
      ],
      "payable": false,
      "stateMutability": "view",
      "type": "function"
    },
    {
      "constant": false,
      "inputs": [
        {
          "name": "_description",
          "type": "string"
        },
        {
          "name": "_ipfs",
          "type": "bytes"
        },
        {
          "name": "_parent",
          "type": "uint256"
        }
      ],
      "name": "create_model",
      "outputs": [
        {
          "name": "",
          "type": "bool"
        }
      ],
      "payable": false,
      "stateMutability": "nonpayable",
      "type": "function"
    },
    {
      "constant": false,
      "inputs": [
        {
          "name": "_id",
          "type": "uint256"
        },
        {
          "name": "_accuarcy",
          "type": "int256"
        }
      ],
      "name": "set_accuracy",
      "outputs": [],
      "payable": false,
      "stateMutability": "nonpayable",
      "type": "function"
    },
    {
      "constant": true,
      "inputs": [
        {
          "name": "_id",
          "type": "uint256"
        }
      ],
      "name": "get_model_desc",
      "outputs": [
        {
          "name": "",
          "type": "string"
        }
      ],
      "payable": false,
      "stateMutability": "view",
      "type": "function"
    },
    {
      "constant": true,
      "inputs": [
        {
          "name": "_id",
          "type": "uint256"
        }
      ],
      "name": "get_model_accuracy",
      "outputs": [
        {
          "name": "",
          "type": "int256"
        }
      ],
      "payable": false,
      "stateMutability": "view",
      "type": "function"
    },
    {
      "constant": true,
      "inputs": [
        {
          "name": "_id",
          "type": "uint256"
        }
      ],
      "name": "get_model_by_id",
      "outputs": [
        {
          "name": "",
          "type": "address"
        }
      ],
      "payable": false,
      "stateMutability": "view",
      "type": "function"
    },
    {
      "constant": true,
      "inputs": [
        {
          "name": "_user",
          "type": "address"
        }
      ],
      "name": "get_all_model_by_user",
      "outputs": [
        {
          "name": "",
          "type": "address[]"
        }
      ],
      "payable": false,
      "stateMutability": "view",
      "type": "function"
    },
    {
      "constant": false,
      "inputs": [
        {
          "name": "_ipfs",
          "type": "bytes"
        },
        {
          "name": "_id",
          "type": "uint256"
        }
      ],
      "name": "set_ipfshash",
      "outputs": [],
      "payable": false,
      "stateMutability": "nonpayable",
      "type": "function"
    },
    {
      "constant": true,
      "inputs": [],
      "name": "get_model_count",
      "outputs": [
        {
          "name": "",
          "type": "uint256"
        }
      ],
      "payable": false,
      "stateMutability": "view",
      "type": "function"
    }
  ],
  "bytecode": "0x60806040526080604051908101604052806040805190810160405280601181526020017f496d616765205265636f676e6974696f6e0000000000000000000000000000008152508152602001606060405190810160405280603a81526020017f4d6f64656c7320666f7220696d616765207265636f676e6974696f6e2c20737581526020017f63682061732063617465676f72697a696e6720616e696d616c7300000000000081525081526020016040805190810160405280601181526020017f4d65646963616c20446961676e6f7369730000000000000000000000000000008152508152602001606060405190810160405280603b81526020017f4d6f64656c7320666f72206469736561736520646961676e6f7369732c20737581526020017f63682061732063616e63657220636c617373696669636174696f6e000000000081525081525060009060046200015a929190620001b9565b50600480556000600d553480156200017157600080fd5b5033600560006101000a81548173ffffffffffffffffffffffffffffffffffffffff021916908373ffffffffffffffffffffffffffffffffffffffff1602179055506200033f565b826004810192821562000200579160200282015b82811115620001ff578251829080519060200190620001ee92919062000213565b5091602001919060010190620001cd565b5b5090506200020f91906200029a565b5090565b828054600181600116156101000203166002900490600052602060002090601f016020900481019282601f106200025657805160ff191683800117855562000287565b8280016001018555821562000287579182015b828111156200028657825182559160200191906001019062000269565b5b509050620002969190620002cb565b5090565b620002c891905b80821115620002c45760008181620002ba9190620002f3565b50600101620002a1565b5090565b90565b620002f091905b80821115620002ec576000816000905550600101620002d2565b5090565b90565b50805460018160011615610100020316600290046000825580601f106200031b57506200033c565b601f0160209004906000526020600020908101906200033b9190620002cb565b5b50565b61220b806200034f6000396000f30060806040526004361062000103576000357c0100000000000000000000000000000000000000000000000000000000900463ffffffff1680630af42371146200010557806349018aab1462000133578063515ced53146200016d57806360fe47b1146200019b5780636270f7b814620001cb57806365891cbb14620002775780636d48ae2514620002a75780636d4ce63c14620002d55780638529a3e414620003035780639bf106c914620003d7578063a2e4b3b4146200041b578063a6bec06e14620004b8578063ba4bff0b1462000564578063dcab91d814620005da578063e7278e7f1462000608578063f2e04d981462000636578063f8a8fd6d14620006a6575b005b3480156200011257600080fd5b506200011d6200073c565b6040518082815260200191505060405180910390f35b3480156200014057600080fd5b506200016b600480360381019080803590602001909291908035906020019092919050505062000746565b005b3480156200017a57600080fd5b5062000185620008a7565b6040518082815260200191505060405180910390f35b348015620001a857600080fd5b50620001c960048036038101908080359060200190929190505050620008ad565b005b348015620001d857600080fd5b50620001f960048036038101908080359060200190929190505050620008b7565b6040518080602001828103825283818151815260200191508051906020019080838360005b838110156200023b5780820151818401526020810190506200021e565b50505050905090810190601f168015620002695780820380516001836020036101000a031916815260200191505b509250505060405180910390f35b3480156200028457600080fd5b50620002a5600480360381019080803590602001909291905050506200096e565b005b348015620002b457600080fd5b50620002bf62000a33565b6040518082815260200191505060405180910390f35b348015620002e257600080fd5b50620002ed62000a39565b6040518082815260200191505060405180910390f35b3480156200031057600080fd5b50620003bd600480360381019080803590602001908201803590602001908080601f0160208091040260200160405190810160405280939291908181526020018383808284378201915050505050509192919290803590602001908201803590602001908080601f01602080910402602001604051908101604052809392919081815260200183838082843782019150505050505091929192908035906020019092919050505062000a43565b604051808215151515815260200191505060405180910390f35b348015620003e457600080fd5b50620004056004803603810190808035906020019092919050505062000cdb565b6040518082815260200191505060405180910390f35b3480156200042857600080fd5b506200045f600480360381019080803573ffffffffffffffffffffffffffffffffffffffff16906020019092919050505062000db9565b6040518080602001828103825283818151815260200191508051906020019060200280838360005b83811015620004a457808201518184015260208101905062000487565b505050509050019250505060405180910390f35b348015620004c557600080fd5b50620004e66004803603810190808035906020019092919050505062000e8e565b6040518080602001828103825283818151815260200191508051906020019080838360005b83811015620005285780820151818401526020810190506200050b565b50505050905090810190601f168015620005565780820380516001836020036101000a031916815260200191505b509250505060405180910390f35b3480156200057157600080fd5b50620005d8600480360381019080803590602001908201803590602001908080601f01602080910402602001604051908101604052809392919081815260200183838082843782019150505050505091929192908035906020019092919050505062000fc5565b005b348015620005e757600080fd5b50620005f262001121565b6040518082815260200191505060405180910390f35b3480156200061557600080fd5b506200062062001127565b6040518082815260200191505060405180910390f35b3480156200064357600080fd5b50620006646004803603810190808035906020019092919050505062001131565b604051808273ffffffffffffffffffffffffffffffffffffffff1673ffffffffffffffffffffffffffffffffffffffff16815260200191505060405180910390f35b348015620006b357600080fd5b50620006be6200116e565b6040518080602001828103825283818151815260200191508051906020019080838360005b8381101562000700578082015181840152602081019050620006e3565b50505050905090810190601f1680156200072e5780820380516001836020036101000a031916815260200191505b509250505060405180910390f35b6000600654905090565b6000600860003373ffffffffffffffffffffffffffffffffffffffff1673ffffffffffffffffffffffffffffffffffffffff16815260200190815260200160002080549050141515156200079957600080fd5b6009600083815260200190815260200160002060009054906101000a900473ffffffffffffffffffffffffffffffffffffffff1673ffffffffffffffffffffffffffffffffffffffff1663f8a1acc233836040518363ffffffff167c0100000000000000000000000000000000000000000000000000000000028152600401808373ffffffffffffffffffffffffffffffffffffffff1673ffffffffffffffffffffffffffffffffffffffff16815260200182815260200192505050600060405180830381600087803b1580156200087057600080fd5b505af115801562000885573d6000803e3d6000fd5b50505050600d54811315620008a35780600d8190555081600c819055505b5050565b600c5481565b80600e8190555050565b6060600082600481101515620008c957fe5b018054600181600116156101000203166002900480601f016020809104026020016040519081016040528092919081815260200182805460018160011615610100020316600290048015620009625780601f10620009365761010080835404028352916020019162000962565b820191906000526020600020905b8154815290600101906020018083116200094457829003601f168201915b50505050509050919050565b806004819055506040805190810160405280600981526020017f496d616765446174610000000000000000000000000000000000000000000000815250600080600481101515620009bb57fe5b019080519060200190620009d1929190620011ab565b506040805190810160405280600b81526020017f4d65646963616c446174610000000000000000000000000000000000000000008152506000600160048110151562000a1957fe5b01908051906020019062000a2f929190620011ab565b5050565b600d5481565b6000600e54905090565b60008060006001600654019150338287878762000a5f62001232565b808673ffffffffffffffffffffffffffffffffffffffff1673ffffffffffffffffffffffffffffffffffffffff1681526020018581526020018060200180602001848152602001838103835286818151815260200191508051906020019080838360005b8381101562000ae057808201518184015260208101905062000ac3565b50505050905090810190601f16801562000b0e5780820380516001836020036101000a031916815260200191505b50838103825285818151815260200191508051906020019080838360005b8381101562000b4957808201518184015260208101905062000b2c565b50505050905090810190601f16801562000b775780820380516001836020036101000a031916815260200191505b50975050505050505050604051809103906000f08015801562000b9e573d6000803e3d6000fd5b509050600860003373ffffffffffffffffffffffffffffffffffffffff1673ffffffffffffffffffffffffffffffffffffffff1681526020019081526020016000208190806001815401808255809150509060018203906000526020600020016000909192909190916101000a81548173ffffffffffffffffffffffffffffffffffffffff021916908373ffffffffffffffffffffffffffffffffffffffff16021790555050806009600084815260200190815260200160002060006101000a81548173ffffffffffffffffffffffffffffffffffffffff021916908373ffffffffffffffffffffffffffffffffffffffff160217905550600160065401600681905550600a8290806001815401808255809150509060018203906000526020600020016000909192909190915055506001925050509392505050565b60006009600083815260200190815260200160002060009054906101000a900473ffffffffffffffffffffffffffffffffffffffff1673ffffffffffffffffffffffffffffffffffffffff16635193cfc66040518163ffffffff167c0100000000000000000000000000000000000000000000000000000000028152600401602060405180830381600087803b15801562000d7557600080fd5b505af115801562000d8a573d6000803e3d6000fd5b505050506040513d602081101562000da157600080fd5b81019080805190602001909291905050509050919050565b60606000600860008473ffffffffffffffffffffffffffffffffffffffff1673ffffffffffffffffffffffffffffffffffffffff16815260200190815260200160002090508080548060200260200160405190810160405280929190818152602001828054801562000e8157602002820191906000526020600020905b8160009054906101000a900473ffffffffffffffffffffffffffffffffffffffff1673ffffffffffffffffffffffffffffffffffffffff168152602001906001019080831162000e36575b5050505050915050919050565b60606009600083815260200190815260200160002060009054906101000a900473ffffffffffffffffffffffffffffffffffffffff1673ffffffffffffffffffffffffffffffffffffffff16633a525c296040518163ffffffff167c0100000000000000000000000000000000000000000000000000000000028152600401600060405180830381600087803b15801562000f2857600080fd5b505af115801562000f3d573d6000803e3d6000fd5b505050506040513d6000823e3d601f19601f82011682018060405250602081101562000f6857600080fd5b81019080805164010000000081111562000f8157600080fd5b8281019050602081018481111562000f9857600080fd5b815185600182028301116401000000008211171562000fb657600080fd5b50509291905050509050919050565b6009600082815260200190815260200160002060009054906101000a900473ffffffffffffffffffffffffffffffffffffffff1673ffffffffffffffffffffffffffffffffffffffff166347d2918933846040518363ffffffff167c0100000000000000000000000000000000000000000000000000000000028152600401808373ffffffffffffffffffffffffffffffffffffffff1673ffffffffffffffffffffffffffffffffffffffff16815260200180602001828103825283818151815260200191508051906020019080838360005b83811015620010b557808201518184015260208101905062001098565b50505050905090810190601f168015620010e35780820380516001836020036101000a031916815260200191505b509350505050600060405180830381600087803b1580156200110457600080fd5b505af115801562001119573d6000803e3d6000fd5b505050505050565b60065481565b6000600454905090565b60006009600083815260200190815260200160002060009054906101000a900473ffffffffffffffffffffffffffffffffffffffff169050919050565b60606040805190810160405280600481526020017f5445535400000000000000000000000000000000000000000000000000000000815250905090565b828054600181600116156101000203166002900490600052602060002090601f016020900481019282601f10620011ee57805160ff19168380011785556200121f565b828001600101855582156200121f579182015b828111156200121e57825182559160200191906001019062001201565b5b5090506200122e919062001243565b5090565b604051610f74806200126c83390190565b6200126891905b80821115620012645760008160009055506001016200124a565b5090565b90560060806040523480156200001157600080fd5b5060405162000f7438038062000f748339810180604052810190808051906020019092919080519060200190929190805182019291906020018051820192919060200180519060200190929190505050846000806101000a81548173ffffffffffffffffffffffffffffffffffffffff021916908373ffffffffffffffffffffffffffffffffffffffff16021790555033600c60006101000a81548173ffffffffffffffffffffffffffffffffffffffff021916908373ffffffffffffffffffffffffffffffffffffffff1602179055508360028190555082600390805190602001906200010192919062000174565b5081600190805190602001906200011a929190620001fb565b50600081141562000146576001600660006101000a81548160ff02191690831515021790555062000169565b806004819055506000600660006101000a81548160ff0219169083151502179055505b5050505050620002aa565b828054600181600116156101000203166002900490600052602060002090601f016020900481019282601f10620001b757805160ff1916838001178555620001e8565b82800160010185558215620001e8579182015b82811115620001e7578251825591602001919060010190620001ca565b5b509050620001f7919062000282565b5090565b828054600181600116156101000203166002900490600052602060002090601f016020900481019282601f106200023e57805160ff19168380011785556200026f565b828001600101855582156200026f579182015b828111156200026e57825182559160200191906001019062000251565b5b5090506200027e919062000282565b5090565b620002a791905b80821115620002a357600081600090555060010162000289565b5090565b90565b610cba80620002ba6000396000f3006080604052600436106100e6576000357c0100000000000000000000000000000000000000000000000000000000900463ffffffff1680633a525c29146100eb57806341c0e1b51461017b57806347d29189146101925780635193cfc61461021b57806360f96a8f146102465780636112db8f146102715780636b9a6aec1461029e5780637284e4161461030a578063776d340e1461039a5780637842ec0e146103c557806383835c01146104555780638da5cb5b14610480578063a035b1fe146104d7578063af640d0f14610502578063d0c670381461052d578063f8a1acc2146105e1575b600080fd5b3480156100f757600080fd5b5061010061062e565b6040518080602001828103825283818151815260200191508051906020019080838360005b83811015610140578082015181840152602081019050610125565b50505050905090810190601f16801561016d5780820380516001836020036101000a031916815260200191505b509250505060405180910390f35b34801561018757600080fd5b506101906106d0565b005b34801561019e57600080fd5b50610219600480360381019080803573ffffffffffffffffffffffffffffffffffffffff169060200190929190803590602001908201803590602001908080601f0160208091040260200160405190810160405280939291908181526020018383808284378201915050505050509192919290505050610779565b005b34801561022757600080fd5b5061023061084d565b6040518082815260200191505060405180910390f35b34801561025257600080fd5b5061025b610857565b6040518082815260200191505060405180910390f35b34801561027d57600080fd5b5061029c6004803603810190808035906020019092919050505061085d565b005b3480156102aa57600080fd5b506102b361088c565b6040518080602001828103825283818151815260200191508051906020019060200280838360005b838110156102f65780820151818401526020810190506102db565b505050509050019250505060405180910390f35b34801561031657600080fd5b5061031f6108e4565b6040518080602001828103825283818151815260200191508051906020019080838360005b8381101561035f578082015181840152602081019050610344565b50505050905090810190601f16801561038c5780820380516001836020036101000a031916815260200191505b509250505060405180910390f35b3480156103a657600080fd5b506103af610982565b6040518082815260200191505060405180910390f35b3480156103d157600080fd5b506103da61098c565b6040518080602001828103825283818151815260200191508051906020019080838360005b8381101561041a5780820151818401526020810190506103ff565b50505050905090810190601f1680156104475780820380516001836020036101000a031916815260200191505b509250505060405180910390f35b34801561046157600080fd5b5061046a610a2a565b6040518082815260200191505060405180910390f35b34801561048c57600080fd5b50610495610a30565b604051808273ffffffffffffffffffffffffffffffffffffffff1673ffffffffffffffffffffffffffffffffffffffff16815260200191505060405180910390f35b3480156104e357600080fd5b506104ec610a55565b6040518082815260200191505060405180910390f35b34801561050e57600080fd5b50610517610a5b565b6040518082815260200191505060405180910390f35b34801561053957600080fd5b50610542610a61565b60405180868152602001806020018581526020018460001916600019168152602001838152602001828103825286818151815260200191508051906020019080838360005b838110156105a2578082015181840152602081019050610587565b50505050905090810190601f1680156105cf5780820380516001836020036101000a031916815260200191505b50965050505050505060405180910390f35b3480156105ed57600080fd5b5061062c600480360381019080803573ffffffffffffffffffffffffffffffffffffffff16906020019092919080359060200190929190505050610b25565b005b606060038054600181600116156101000203166002900480601f0160208091040260200160405190810160405280929190818152602001828054600181600116156101000203166002900480156106c65780601f1061069b576101008083540402835291602001916106c6565b820191906000526020600020905b8154815290600101906020018083116106a957829003601f168201915b5050505050905090565b60006005805490501415156106e457600080fd5b6000809054906101000a900473ffffffffffffffffffffffffffffffffffffffff1673ffffffffffffffffffffffffffffffffffffffff163373ffffffffffffffffffffffffffffffffffffffff1614151561073f57600080fd5b6000809054906101000a900473ffffffffffffffffffffffffffffffffffffffff1673ffffffffffffffffffffffffffffffffffffffff16ff5b81600c60009054906101000a900473ffffffffffffffffffffffffffffffffffffffff1673ffffffffffffffffffffffffffffffffffffffff163373ffffffffffffffffffffffffffffffffffffffff161415156107d657600080fd5b6000809054906101000a900473ffffffffffffffffffffffffffffffffffffffff1673ffffffffffffffffffffffffffffffffffffffff168173ffffffffffffffffffffffffffffffffffffffff1614151561083157600080fd5b8160019080519060200190610847929190610be9565b50505050565b6000600754905090565b60045481565b600581908060018154018082558091505090600182039060005260206000200160009091929091909150555050565b606060058054806020026020016040519081016040528092919081815260200182805480156108da57602002820191906000526020600020905b8154815260200190600101908083116108c6575b5050505050905090565b60038054600181600116156101000203166002900480601f01602080910402602001604051908101604052809291908181526020018280546001816001161561010002031660029004801561097a5780601f1061094f5761010080835404028352916020019161097a565b820191906000526020600020905b81548152906001019060200180831161095d57829003601f168201915b505050505081565b6000600454905090565b60018054600181600116156101000203166002900480601f016020809104026020016040519081016040528092919081815260200182805460018160011615610100020316600290048015610a225780601f106109f757610100808354040283529160200191610a22565b820191906000526020600020905b815481529060010190602001808311610a0557829003601f168201915b505050505081565b60075481565b6000809054906101000a900473ffffffffffffffffffffffffffffffffffffffff1681565b600b5481565b60025481565b6000606060008060006002546003600754600854600b54838054600181600116156101000203166002900480601f016020809104026020016040519081016040528092919081815260200182805460018160011615610100020316600290048015610b0d5780601f10610ae257610100808354040283529160200191610b0d565b820191906000526020600020905b815481529060010190602001808311610af057829003601f168201915b50505050509350945094509450945094509091929394565b81600c60009054906101000a900473ffffffffffffffffffffffffffffffffffffffff1673ffffffffffffffffffffffffffffffffffffffff163373ffffffffffffffffffffffffffffffffffffffff16141515610b8257600080fd5b6000809054906101000a900473ffffffffffffffffffffffffffffffffffffffff1673ffffffffffffffffffffffffffffffffffffffff168173ffffffffffffffffffffffffffffffffffffffff16141515610bdd57600080fd5b81600781905550505050565b828054600181600116156101000203166002900490600052602060002090601f016020900481019282601f10610c2a57805160ff1916838001178555610c58565b82800160010185558215610c58579182015b82811115610c57578251825591602001919060010190610c3c565b5b509050610c659190610c69565b5090565b610c8b91905b80821115610c87576000816000905550600101610c6f565b5090565b905600a165627a7a7230582051a8925a2065f57a5fa8f43e0326ed671e28ea1e28cbeded87afa52af4563a8e0029a165627a7a72305820d6d398fb1042cfcc7661d98b31341470e91f0a5c9d74c507b58cd15c3b5e73020029",
  "source": "pragma solidity ^0.4.18;\n\nimport './Model.sol';\n\ncontract MarketPlace {\n\n    string[4]  Categories = [\n        \"Image Recognition\",\n        \"Models for image recognition, such as categorizing animals\",\n        \"Medical Diagnosis\",\n        \"Models for disease diagnosis, such as cancer classification\"];\n\n    uint  category_count = 4;\n\n    address owner;\n\n    // Global data storage for models\n    uint public model_count;\n    mapping (address => User) users;\n    mapping (address => address[]) model_by_user;\n    mapping (uint => Model) models;\n    uint[] indexes; // List of Model IDs for enumeration\n\n    mapping (address => uint[]) contestId;\n\n\n    uint public best_submission_index;\n    int256 public best_submission_accuracy = 0;\n\n    constructor() public{\n      owner = msg.sender;\n\n    }\n\n    uint storedData;\n\n    function set(uint x) public {\n      storedData = x;\n    }\n\n    function set_default(uint _num) public{\n        category_count = _num;\n        Categories[0] = \"ImageData\";\n        Categories[1] = \"MedicalData\";\n    }\n\n    function get() public view returns (uint) {\n      return storedData;\n    }\n\n    function test() public constant returns (string){\n      return \"TEST\";\n    }\n\n    function get_count() public view returns(uint){\n        return category_count;\n    }\n\n    function get_category(uint _id) public view returns(string){\n        return Categories[_id];\n    }\n\n    function() public payable {}\n\n    struct User {\n      address user_address;\n      uint balance;\n    }\n\n    function create_model(string _description, bytes _ipfs, uint _parent)\n    public returns (bool)\n    {\n      uint id = model_count + 1;\n      Model new_model =new Model(msg.sender, id, _description, _ipfs, _parent);\n      model_by_user[msg.sender].push(new_model);\n      models[id] = new_model;\n      model_count = model_count + 1;\n      indexes.push(id);\n      return true;\n    }\n\n    function set_accuracy(uint _id, int256 _accuarcy) public {\n        require(model_by_user[msg.sender].length != 0);\n        models[_id].set_accuracy(msg.sender, _accuarcy);\n        if (_accuarcy > best_submission_accuracy){\n            best_submission_accuracy = _accuarcy;\n            best_submission_index = _id;\n        }\n    }\n\n\n    function get_model_desc(uint _id) public view returns(string){\n        return models[_id].get_name();\n    }\n\n    function get_model_accuracy(uint _id) public view returns(int256){\n        return models[_id].get_accuracy();\n    }\n\n    function get_model_by_id(uint _id) public view returns(address){\n        return models[_id];\n    }\n\n    function get_all_model_by_user(address _user) public view returns (address[]){\n      address[] storage model_list = model_by_user[_user];\n      return model_list;\n    }\n\n    function set_ipfshash( bytes _ipfs, uint _id) public{\n        models[_id].set_ipfs(msg.sender, _ipfs);\n    }\n\n    function get_model_count() public view returns(uint){\n        return model_count;\n    }\n}\n",
  "sourcePath": "/Users/machenhan/Documents/FinalProject/git_version/BlockchainRevolution/contracts/MarketPlace.sol",
  "compiler": {
    "name": "solc",
    "version": "0.4.24+commit.e67f0147.Emscripten.clang"
  },
  "schemaVersion": "2.0.0",
  "updatedAt": "2018-05-23T16:06:01.038Z"
}