{
  "contractName": "MarketPlace",
  "abi": [
    {
      "constant": true,
      "inputs": [],
      "name": "best_submission_index",
      "outputs": [
        {
          "name": "",
          "type": "int256"
        }
      ],
      "payable": false,
      "stateMutability": "view",
      "type": "function"
    },
    {
      "constant": true,
      "inputs": [],
      "name": "best_submission_accuracy",
      "outputs": [
        {
          "name": "",
          "type": "int256"
        }
      ],
      "payable": false,
      "stateMutability": "view",
      "type": "function"
    },
    {
      "constant": true,
      "inputs": [],
      "name": "model_count",
      "outputs": [
        {
          "name": "",
          "type": "int256"
        }
      ],
      "payable": false,
      "stateMutability": "view",
      "type": "function"
    },
    {
      "inputs": [],
      "payable": false,
      "stateMutability": "nonpayable",
      "type": "constructor"
    },
    {
      "payable": true,
      "stateMutability": "payable",
      "type": "fallback"
    },
    {
      "constant": true,
      "inputs": [],
      "name": "get_count",
      "outputs": [
        {
          "name": "",
          "type": "int256"
        }
      ],
      "payable": false,
      "stateMutability": "view",
      "type": "function"
    },
    {
      "constant": true,
      "inputs": [
        {
          "name": "_id",
          "type": "int256"
        }
      ],
      "name": "get_category",
      "outputs": [
        {
          "name": "",
          "type": "string"
        }
      ],
      "payable": false,
      "stateMutability": "view",
      "type": "function"
    },
    {
      "constant": true,
      "inputs": [
        {
          "name": "_category",
          "type": "string"
        }
      ],
      "name": "get_models_by_category",
      "outputs": [
        {
          "name": "",
          "type": "int256[]"
        }
      ],
      "payable": false,
      "stateMutability": "view",
      "type": "function"
    },
    {
      "constant": true,
      "inputs": [
        {
          "name": "_id",
          "type": "int256"
        }
      ],
      "name": "get_model_desc",
      "outputs": [
        {
          "name": "",
          "type": "string"
        }
      ],
      "payable": false,
      "stateMutability": "view",
      "type": "function"
    },
    {
      "constant": true,
      "inputs": [
        {
          "name": "_id",
          "type": "int256"
        }
      ],
      "name": "get_model_accuracy",
      "outputs": [
        {
          "name": "",
          "type": "int256"
        }
      ],
      "payable": false,
      "stateMutability": "view",
      "type": "function"
    },
    {
      "constant": true,
      "inputs": [
        {
          "name": "_id",
          "type": "int256"
        }
      ],
      "name": "get_model_by_id",
      "outputs": [
        {
          "name": "",
          "type": "address"
        }
      ],
      "payable": false,
      "stateMutability": "view",
      "type": "function"
    },
    {
      "constant": true,
      "inputs": [
        {
          "name": "_id",
          "type": "int256"
        }
      ],
      "name": "get_model_all",
      "outputs": [
        {
          "name": "id_",
          "type": "int256"
        },
        {
          "name": "owner_",
          "type": "address"
        },
        {
          "name": "name_",
          "type": "string"
        },
        {
          "name": "accuracy_",
          "type": "int256"
        },
        {
          "name": "category_",
          "type": "string"
        },
        {
          "name": "price_",
          "type": "int256"
        },
        {
          "name": "parent_",
          "type": "int256"
        },
        {
          "name": "genesis_",
          "type": "bool"
        },
        {
          "name": "ipfs_",
          "type": "bytes"
        },
        {
          "name": "iterationLevel_",
          "type": "int256"
        },
        {
          "name": "description_",
          "type": "string"
        }
      ],
      "payable": false,
      "stateMutability": "view",
      "type": "function"
    },
    {
      "constant": true,
      "inputs": [
        {
          "name": "_user",
          "type": "address"
        }
      ],
      "name": "get_all_models_by_user",
      "outputs": [
        {
          "name": "",
          "type": "int256[]"
        }
      ],
      "payable": false,
      "stateMutability": "view",
      "type": "function"
    },
    {
      "constant": true,
      "inputs": [],
      "name": "get_model_count",
      "outputs": [
        {
          "name": "",
          "type": "int256"
        }
      ],
      "payable": false,
      "stateMutability": "view",
      "type": "function"
    },
    {
      "constant": true,
      "inputs": [
        {
          "name": "_id",
          "type": "int256"
        }
      ],
      "name": "get_models_by_parent",
      "outputs": [
        {
          "name": "",
          "type": "int256[]"
        }
      ],
      "payable": false,
      "stateMutability": "view",
      "type": "function"
    },
    {
      "constant": true,
      "inputs": [
        {
          "name": "_id",
          "type": "int256"
        }
      ],
      "name": "get_iterationLevel",
      "outputs": [
        {
          "name": "",
          "type": "int256"
        }
      ],
      "payable": false,
      "stateMutability": "view",
      "type": "function"
    },
    {
      "constant": false,
      "inputs": [
        {
          "name": "_name",
          "type": "string"
        },
        {
          "name": "_parent",
          "type": "int256"
        },
        {
          "name": "_description",
          "type": "string"
        },
        {
          "name": "_ipfs",
          "type": "bytes"
        },
        {
          "name": "_accuracy",
          "type": "int256"
        },
        {
          "name": "_category",
          "type": "string"
        },
        {
          "name": "_iterationLevel",
          "type": "int256"
        },
        {
          "name": "_price",
          "type": "int256"
        }
      ],
      "name": "create_model",
      "outputs": [
        {
          "name": "",
          "type": "bool"
        }
      ],
      "payable": false,
      "stateMutability": "nonpayable",
      "type": "function"
    },
    {
      "constant": false,
      "inputs": [
        {
          "name": "_ipfs",
          "type": "bytes"
        },
        {
          "name": "_id",
          "type": "int256"
        }
      ],
      "name": "set_ipfshash",
      "outputs": [],
      "payable": false,
      "stateMutability": "nonpayable",
      "type": "function"
    },
    {
      "constant": false,
      "inputs": [
        {
          "name": "_id",
          "type": "int256"
        },
        {
          "name": "_accuarcy",
          "type": "int256"
        }
      ],
      "name": "set_accuracy",
      "outputs": [],
      "payable": false,
      "stateMutability": "nonpayable",
      "type": "function"
    },
    {
      "constant": false,
      "inputs": [
        {
          "name": "_account",
          "type": "address"
        }
      ],
      "name": "register_user",
      "outputs": [
        {
          "name": "",
          "type": "bool"
        }
      ],
      "payable": false,
      "stateMutability": "nonpayable",
      "type": "function"
    },
    {
      "constant": false,
      "inputs": [
        {
          "name": "_parent",
          "type": "int256"
        },
        {
          "name": "_child",
          "type": "int256"
        }
      ],
      "name": "append_child",
      "outputs": [
        {
          "name": "",
          "type": "bool"
        }
      ],
      "payable": false,
      "stateMutability": "nonpayable",
      "type": "function"
    }
  ],
  "bytecode": "0x60806040526080604051908101604052806040805190810160405280601181526020017f496d616765205265636f676e6974696f6e0000000000000000000000000000008152508152602001606060405190810160405280603a81526020017f4d6f64656c7320666f7220696d616765207265636f676e6974696f6e2c20737581526020017f63682061732063617465676f72697a696e6720616e696d616c7300000000000081525081526020016040805190810160405280601181526020017f4d65646963616c20446961676e6f7369730000000000000000000000000000008152508152602001606060405190810160405280603b81526020017f4d6f64656c7320666f72206469736561736520646961676e6f7369732c20737581526020017f63682061732063616e63657220636c617373696669636174696f6e000000000081525081525060009060046200015a929190620001b9565b506004805560006010553480156200017157600080fd5b5033600560006101000a81548173ffffffffffffffffffffffffffffffffffffffff021916908373ffffffffffffffffffffffffffffffffffffffff1602179055506200033f565b826004810192821562000200579160200282015b82811115620001ff578251829080519060200190620001ee92919062000213565b5091602001919060010190620001cd565b5b5090506200020f91906200029a565b5090565b828054600181600116156101000203166002900490600052602060002090601f016020900481019282601f106200025657805160ff191683800117855562000287565b8280016001018555821562000287579182015b828111156200028657825182559160200191906001019062000269565b5b509050620002969190620002cb565b5090565b620002c891905b80821115620002c45760008181620002ba9190620002f3565b50600101620002a1565b5090565b90565b620002f091905b80821115620002ec576000816000905550600101620002d2565b5090565b90565b50805460018160011615610100020316600290046000825580601f106200031b57506200033c565b601f0160209004906000526020600020908101906200033b9190620002cb565b5b50565b613500806200034f6000396000f3006080604052600436106200011b576000357c0100000000000000000000000000000000000000000000000000000000900463ffffffff1680630af42371146200011d5780631fa965e7146200014b5780632b45571c14620003a55780632df6e75c146200042c57806334dac21914620004d857806335a47e0e14620005485780634e1510ab1462000582578063515ced5314620005f85780635892d08814620006265780636d48ae2514620006c357806374fa5d5c14620006f1578063b43f99f81462000735578063dcab91d814620007f8578063ded617301462000826578063e4779d73146200086a578063e7278e7f14620008c8578063ee5469a914620008f6578063f38272d014620009a2578063f48e901d14620009f4575b005b3480156200012a57600080fd5b506200013562000b72565b6040518082815260200191505060405180910390f35b3480156200015857600080fd5b50620001796004803603810190808035906020019092919050505062000b7c565b604051808c81526020018b73ffffffffffffffffffffffffffffffffffffffff1673ffffffffffffffffffffffffffffffffffffffff168152602001806020018a81526020018060200189815260200188815260200187151515158152602001806020018681526020018060200185810385528e818151815260200191508051906020019080838360005b838110156200022157808201518184015260208101905062000204565b50505050905090810190601f1680156200024f5780820380516001836020036101000a031916815260200191505b5085810384528c818151815260200191508051906020019080838360005b838110156200028a5780820151818401526020810190506200026d565b50505050905090810190601f168015620002b85780820380516001836020036101000a031916815260200191505b50858103835288818151815260200191508051906020019080838360005b83811015620002f3578082015181840152602081019050620002d6565b50505050905090810190601f168015620003215780820380516001836020036101000a031916815260200191505b50858103825286818151815260200191508051906020019080838360005b838110156200035c5780820151818401526020810190506200033f565b50505050905090810190601f1680156200038a5780820380516001836020036101000a031916815260200191505b509f5050505050505050505050505050505060405180910390f35b348015620003b257600080fd5b50620003d36004803603810190808035906020019092919050505062000e20565b6040518080602001828103825283818151815260200191508051906020019060200280838360005b8381101562000418578082015181840152602081019050620003fb565b505050509050019250505060405180910390f35b3480156200043957600080fd5b506200045a6004803603810190808035906020019092919050505062000e8d565b6040518080602001828103825283818151815260200191508051906020019080838360005b838110156200049c5780820151818401526020810190506200047f565b50505050905090810190601f168015620004ca5780820380516001836020036101000a031916815260200191505b509250505060405180910390f35b348015620004e557600080fd5b50620005066004803603810190808035906020019092919050505062000f44565b604051808273ffffffffffffffffffffffffffffffffffffffff1673ffffffffffffffffffffffffffffffffffffffff16815260200191505060405180910390f35b3480156200055557600080fd5b5062000580600480360381019080803590602001909291908035906020019092919050505062000f81565b005b3480156200058f57600080fd5b50620005f6600480360381019080803590602001908201803590602001908080601f016020809104026020016040519081016040528093929190818152602001838380828437820191505050505050919291929080359060200190929190505050620010e2565b005b3480156200060557600080fd5b50620006106200123e565b6040518082815260200191505060405180910390f35b3480156200063357600080fd5b506200066a600480360381019080803573ffffffffffffffffffffffffffffffffffffffff16906020019092919050505062001244565b6040518080602001828103825283818151815260200191508051906020019060200280838360005b83811015620006af57808201518184015260208101905062000692565b505050509050019250505060405180910390f35b348015620006d057600080fd5b50620006db620012e3565b6040518082815260200191505060405180910390f35b348015620006fe57600080fd5b506200071f60048036038101908080359060200190929190505050620012e9565b6040518082815260200191505060405180910390f35b3480156200074257600080fd5b506200079f600480360381019080803590602001908201803590602001908080601f0160208091040260200160405190810160405280939291908181526020018383808284378201915050505050509192919290505050620013db565b6040518080602001828103825283818151815260200191508051906020019060200280838360005b83811015620007e4578082015181840152602081019050620007c7565b505050509050019250505060405180910390f35b3480156200080557600080fd5b5062000810620014a8565b6040518082815260200191505060405180910390f35b3480156200083357600080fd5b506200085460048036038101908080359060200190929190505050620014ae565b6040518082815260200191505060405180910390f35b3480156200087757600080fd5b50620008ae600480360381019080803573ffffffffffffffffffffffffffffffffffffffff1690602001909291905050506200158c565b604051808215151515815260200191505060405180910390f35b348015620008d557600080fd5b50620008e062001656565b6040518082815260200191505060405180910390f35b3480156200090357600080fd5b50620009246004803603810190808035906020019092919050505062001660565b6040518080602001828103825283818151815260200191508051906020019080838360005b838110156200096657808201518184015260208101905062000949565b50505050905090810190601f168015620009945780820380516001836020036101000a031916815260200191505b509250505060405180910390f35b348015620009af57600080fd5b50620009da600480360381019080803590602001909291908035906020019092919050505062001797565b604051808215151515815260200191505060405180910390f35b34801562000a0157600080fd5b5062000b58600480360381019080803590602001908201803590602001908080601f016020809104026020016040519081016040528093929190818152602001838380828437820191505050505050919291929080359060200190929190803590602001908201803590602001908080601f0160208091040260200160405190810160405280939291908181526020018383808284378201915050505050509192919290803590602001908201803590602001908080601f016020809104026020016040519081016040528093929190818152602001838380828437820191505050505050919291929080359060200190929190803590602001908201803590602001908080601f016020809104026020016040519081016040528093929190818152602001838380828437820191505050505050919291929080359060200190929190803590602001909291905050506200185f565b604051808215151515815260200191505060405180910390f35b6000600654905090565b6000806060600060606000806000606060006060600a60008d815260200190815260200160002060009054906101000a900473ffffffffffffffffffffffffffffffffffffffff1673ffffffffffffffffffffffffffffffffffffffff16636d09d3b56040518163ffffffff167c0100000000000000000000000000000000000000000000000000000000028152600401600060405180830381600087803b15801562000c2857600080fd5b505af115801562000c3d573d6000803e3d6000fd5b505050506040513d6000823e3d601f19601f8201168201806040525061016081101562000c6957600080fd5b810190808051906020019092919080519060200190929190805164010000000081111562000c9657600080fd5b8281019050602081018481111562000cad57600080fd5b815185600182028301116401000000008211171562000ccb57600080fd5b505092919060200180519060200190929190805164010000000081111562000cf257600080fd5b8281019050602081018481111562000d0957600080fd5b815185600182028301116401000000008211171562000d2757600080fd5b5050929190602001805190602001909291908051906020019092919080519060200190929190805164010000000081111562000d6257600080fd5b8281019050602081018481111562000d7957600080fd5b815185600182028301116401000000008211171562000d9757600080fd5b505092919060200180519060200190929190805164010000000081111562000dbe57600080fd5b8281019050602081018481111562000dd557600080fd5b815185600182028301116401000000008211171562000df357600080fd5b50509291905050509a509a509a509a509a509a509a509a509a509a509a5091939597999b90929496989a50565b6060600c600083815260200190815260200160002080548060200260200160405190810160405280929190818152602001828054801562000e8157602002820191906000526020600020905b81548152602001906001019080831162000e6c575b50505050509050919050565b606060008260048110151562000e9f57fe5b018054600181600116156101000203166002900480601f01602080910402602001604051908101604052809291908181526020018280546001816001161561010002031660029004801562000f385780601f1062000f0c5761010080835404028352916020019162000f38565b820191906000526020600020905b81548152906001019060200180831162000f1a57829003601f168201915b50505050509050919050565b6000600a600083815260200190815260200160002060009054906101000a900473ffffffffffffffffffffffffffffffffffffffff169050919050565b6000600960003373ffffffffffffffffffffffffffffffffffffffff1673ffffffffffffffffffffffffffffffffffffffff168152602001908152602001600020805490501415151562000fd457600080fd5b600a600083815260200190815260200160002060009054906101000a900473ffffffffffffffffffffffffffffffffffffffff1673ffffffffffffffffffffffffffffffffffffffff1663f8a1acc233836040518363ffffffff167c0100000000000000000000000000000000000000000000000000000000028152600401808373ffffffffffffffffffffffffffffffffffffffff1673ffffffffffffffffffffffffffffffffffffffff16815260200182815260200192505050600060405180830381600087803b158015620010ab57600080fd5b505af1158015620010c0573d6000803e3d6000fd5b50505050601054811315620010de578060108190555081600f819055505b5050565b600a600082815260200190815260200160002060009054906101000a900473ffffffffffffffffffffffffffffffffffffffff1673ffffffffffffffffffffffffffffffffffffffff166347d2918933846040518363ffffffff167c0100000000000000000000000000000000000000000000000000000000028152600401808373ffffffffffffffffffffffffffffffffffffffff1673ffffffffffffffffffffffffffffffffffffffff16815260200180602001828103825283818151815260200191508051906020019080838360005b83811015620011d2578082015181840152602081019050620011b5565b50505050905090810190601f168015620012005780820380516001836020036101000a031916815260200191505b509350505050600060405180830381600087803b1580156200122157600080fd5b505af115801562001236573d6000803e3d6000fd5b505050505050565b600f5481565b60606000600960008473ffffffffffffffffffffffffffffffffffffffff1673ffffffffffffffffffffffffffffffffffffffff168152602001908152602001600020905080805480602002602001604051908101604052809291908181526020018280548015620012d657602002820191906000526020600020905b815481526020019060010190808311620012c1575b5050505050915050919050565b60105481565b600080821415620012fe5760019050620013d6565b600a600083815260200190815260200160002060009054906101000a900473ffffffffffffffffffffffffffffffffffffffff1673ffffffffffffffffffffffffffffffffffffffff16636e4dcafe6040518163ffffffff167c0100000000000000000000000000000000000000000000000000000000028152600401602060405180830381600087803b1580156200139657600080fd5b505af1158015620013ab573d6000803e3d6000fd5b505050506040513d6020811015620013c257600080fd5b810190808051906020019092919050505090505b919050565b606060006008836040518082805190602001908083835b602083101515620014195780518252602082019150602081019050602083039250620013f2565b6001836020036101000a03801982511681845116808217855250505050505090500191505090815260200160405180910390209050808054806020026020016040519081016040528092919081815260200182805480156200149b57602002820191906000526020600020905b81548152602001906001019080831162001486575b5050505050915050919050565b60065481565b6000600a600083815260200190815260200160002060009054906101000a900473ffffffffffffffffffffffffffffffffffffffff1673ffffffffffffffffffffffffffffffffffffffff16635193cfc66040518163ffffffff167c0100000000000000000000000000000000000000000000000000000000028152600401602060405180830381600087803b1580156200154857600080fd5b505af11580156200155d573d6000803e3d6000fd5b505050506040513d60208110156200157457600080fd5b81019080805190602001909291905050509050919050565b600060408051908101604052808373ffffffffffffffffffffffffffffffffffffffff1681526020016064815250600760008473ffffffffffffffffffffffffffffffffffffffff1673ffffffffffffffffffffffffffffffffffffffff16815260200190815260200160002060008201518160000160006101000a81548173ffffffffffffffffffffffffffffffffffffffff021916908373ffffffffffffffffffffffffffffffffffffffff1602179055506020820151816001015590505060019050919050565b6000600454905090565b6060600a600083815260200190815260200160002060009054906101000a900473ffffffffffffffffffffffffffffffffffffffff1673ffffffffffffffffffffffffffffffffffffffff16633a525c296040518163ffffffff167c0100000000000000000000000000000000000000000000000000000000028152600401600060405180830381600087803b158015620016fa57600080fd5b505af11580156200170f573d6000803e3d6000fd5b505050506040513d6000823e3d601f19601f8201168201806040525060208110156200173a57600080fd5b8101908080516401000000008111156200175357600080fd5b828101905060208101848111156200176a57600080fd5b81518560018202830111640100000000821117156200178857600080fd5b50509291905050509050919050565b6000600a600084815260200190815260200160002060009054906101000a900473ffffffffffffffffffffffffffffffffffffffff1673ffffffffffffffffffffffffffffffffffffffff16632ee8d3d5836040518263ffffffff167c010000000000000000000000000000000000000000000000000000000002815260040180828152602001915050600060405180830381600087803b1580156200183c57600080fd5b505af115801562001851573d6000803e3d6000fd5b505050506001905092915050565b6000806000600160065401915033828c8b8b8e8c8c8c8c6200188062001c9a565b808b73ffffffffffffffffffffffffffffffffffffffff1673ffffffffffffffffffffffffffffffffffffffff1681526020018a81526020018060200180602001806020018981526020018881526020018060200187815260200186815260200185810385528d818151815260200191508051906020019080838360005b838110156200191b578082015181840152602081019050620018fe565b50505050905090810190601f168015620019495780820380516001836020036101000a031916815260200191505b5085810384528c818151815260200191508051906020019080838360005b838110156200198457808201518184015260208101905062001967565b50505050905090810190601f168015620019b25780820380516001836020036101000a031916815260200191505b5085810383528b818151815260200191508051906020019080838360005b83811015620019ed578082015181840152602081019050620019d0565b50505050905090810190601f16801562001a1b5780820380516001836020036101000a031916815260200191505b50858103825288818151815260200191508051906020019080838360005b8381101562001a5657808201518184015260208101905062001a39565b50505050905090810190601f16801562001a845780820380516001836020036101000a031916815260200191505b509e505050505050505050505050505050604051809103906000f08015801562001ab2573d6000803e3d6000fd5b509050600960003373ffffffffffffffffffffffffffffffffffffffff1673ffffffffffffffffffffffffffffffffffffffff1681526020019081526020016000208290806001815401808255809150509060018203906000526020600020016000909192909190915055506008866040518082805190602001908083835b60208310151562001b58578051825260208201915060208101905060208303925062001b31565b6001836020036101000a038019825116818451168082178552505050505050905001915050908152602001604051809103902082908060018154018082558091505090600182039060005260206000200160009091929091909150555080600a600084815260200190815260200160002060006101000a81548173ffffffffffffffffffffffffffffffffffffffff021916908373ffffffffffffffffffffffffffffffffffffffff160217905550600d82908060018154018082558091505090600182039060005260206000200160009091929091909150555060016006540160068190555060008a14151562001c8857600c60008b81526020019081526020016000208290806001815401808255809150509060018203906000526020600020016000909192909190915055505b60019250505098975050505050505050565b6040516118298062001cac83390190560060806040523480156200001157600080fd5b50604051620018293803806200182983398101806040528101908080519060200190929190805190602001909291908051820192919060200180518201929190602001805182019291906020018051906020019092919080519060200190929190805182019291906020018051906020019092919080519060200190929190505050896000806101000a81548173ffffffffffffffffffffffffffffffffffffffff021916908373ffffffffffffffffffffffffffffffffffffffff16021790555033600c60006101000a81548173ffffffffffffffffffffffffffffffffffffffff021916908373ffffffffffffffffffffffffffffffffffffffff16021790555088600281905550876003908051906020019062000133929190620001f9565b5086600490805190602001906200014c929190620001f9565b5085600190805190602001906200016592919062000280565b50846005819055508360088190555082600990805190602001906200018c929190620001f9565b5081600a8190555080600b819055506000851415620001c6576001600760006101000a81548160ff021916908315150217905550620001e9565b846005819055506000600760006101000a81548160ff0219169083151502179055505b505050505050505050506200032f565b828054600181600116156101000203166002900490600052602060002090601f016020900481019282601f106200023c57805160ff19168380011785556200026d565b828001600101855582156200026d579182015b828111156200026c5782518255916020019190600101906200024f565b5b5090506200027c919062000307565b5090565b828054600181600116156101000203166002900490600052602060002090601f016020900481019282601f10620002c357805160ff1916838001178555620002f4565b82800160010185558215620002f4579182015b82811115620002f3578251825591602001919060010190620002d6565b5b50905062000303919062000307565b5090565b6200032c91905b80821115620003285760008160009055506001016200030e565b5090565b90565b6114ea806200033f6000396000f30060806040526004361061013e576000357c0100000000000000000000000000000000000000000000000000000000900463ffffffff16806306fdde03146101435780632ee8d3d5146101d35780633a525c291461020057806341c0e1b51461029057806347d29189146102a75780634a17b0d6146103305780635193cfc61461035f57806360f96a8f1461038a5780636b9a6aec146103b55780636d09d3b5146104215780636e4dcafe146106565780637002ce42146106815780637284e416146106c2578063776d340e146107525780637842ec0e1461077d57806383835c011461080d5780638da5cb5b14610838578063a035b1fe1461088f578063a7f0b3de146108ba578063af640d0f146108e9578063c45a015514610914578063ebc729f71461096b578063ef430aa614610996578063f8a1acc214610a26575b600080fd5b34801561014f57600080fd5b50610158610a73565b6040518080602001828103825283818151815260200191508051906020019080838360005b8381101561019857808201518184015260208101905061017d565b50505050905090810190601f1680156101c55780820380516001836020036101000a031916815260200191505b509250505060405180910390f35b3480156101df57600080fd5b506101fe60048036038101908080359060200190929190505050610b11565b005b34801561020c57600080fd5b50610215610b40565b6040518080602001828103825283818151815260200191508051906020019080838360005b8381101561025557808201518184015260208101905061023a565b50505050905090810190601f1680156102825780820380516001836020036101000a031916815260200191505b509250505060405180910390f35b34801561029c57600080fd5b506102a5610be2565b005b3480156102b357600080fd5b5061032e600480360381019080803573ffffffffffffffffffffffffffffffffffffffff169060200190929190803590602001908201803590602001908080601f0160208091040260200160405190810160405280939291908181526020018383808284378201915050505050509192919290505050610c8b565b005b34801561033c57600080fd5b50610345610d5f565b604051808215151515815260200191505060405180910390f35b34801561036b57600080fd5b50610374610d76565b6040518082815260200191505060405180910390f35b34801561039657600080fd5b5061039f610d80565b6040518082815260200191505060405180910390f35b3480156103c157600080fd5b506103ca610d86565b6040518080602001828103825283818151815260200191508051906020019060200280838360005b8381101561040d5780820151818401526020810190506103f2565b505050509050019250505060405180910390f35b34801561042d57600080fd5b50610436610dde565b604051808c81526020018b73ffffffffffffffffffffffffffffffffffffffff1673ffffffffffffffffffffffffffffffffffffffff168152602001806020018a81526020018060200189815260200188815260200187151515158152602001806020018681526020018060200185810385528e818151815260200191508051906020019080838360005b838110156104dc5780820151818401526020810190506104c1565b50505050905090810190601f1680156105095780820380516001836020036101000a031916815260200191505b5085810384528c818151815260200191508051906020019080838360005b83811015610542578082015181840152602081019050610527565b50505050905090810190601f16801561056f5780820380516001836020036101000a031916815260200191505b50858103835288818151815260200191508051906020019080838360005b838110156105a857808201518184015260208101905061058d565b50505050905090810190601f1680156105d55780820380516001836020036101000a031916815260200191505b50858103825286818151815260200191508051906020019080838360005b8381101561060e5780820151818401526020810190506105f3565b50505050905090810190601f16801561063b5780820380516001836020036101000a031916815260200191505b509f5050505050505050505050505050505060405180910390f35b34801561066257600080fd5b5061066b6110ce565b6040518082815260200191505060405180910390f35b34801561068d57600080fd5b506106ac600480360381019080803590602001909291905050506110d8565b6040518082815260200191505060405180910390f35b3480156106ce57600080fd5b506106d76110fb565b6040518080602001828103825283818151815260200191508051906020019080838360005b838110156107175780820151818401526020810190506106fc565b50505050905090810190601f1680156107445780820380516001836020036101000a031916815260200191505b509250505060405180910390f35b34801561075e57600080fd5b50610767611199565b6040518082815260200191505060405180910390f35b34801561078957600080fd5b506107926111a3565b6040518080602001828103825283818151815260200191508051906020019080838360005b838110156107d25780820151818401526020810190506107b7565b50505050905090810190601f1680156107ff5780820380516001836020036101000a031916815260200191505b509250505060405180910390f35b34801561081957600080fd5b50610822611241565b6040518082815260200191505060405180910390f35b34801561084457600080fd5b5061084d611247565b604051808273ffffffffffffffffffffffffffffffffffffffff1673ffffffffffffffffffffffffffffffffffffffff16815260200191505060405180910390f35b34801561089b57600080fd5b506108a461126c565b6040518082815260200191505060405180910390f35b3480156108c657600080fd5b506108cf611272565b604051808215151515815260200191505060405180910390f35b3480156108f557600080fd5b506108fe611285565b6040518082815260200191505060405180910390f35b34801561092057600080fd5b5061092961128b565b604051808273ffffffffffffffffffffffffffffffffffffffff1673ffffffffffffffffffffffffffffffffffffffff16815260200191505060405180910390f35b34801561097757600080fd5b506109806112b1565b6040518082815260200191505060405180910390f35b3480156109a257600080fd5b506109ab6112b7565b6040518080602001828103825283818151815260200191508051906020019080838360005b838110156109eb5780820151818401526020810190506109d0565b50505050905090810190601f168015610a185780820380516001836020036101000a031916815260200191505b509250505060405180910390f35b348015610a3257600080fd5b50610a71600480360381019080803573ffffffffffffffffffffffffffffffffffffffff16906020019092919080359060200190929190505050611355565b005b60038054600181600116156101000203166002900480601f016020809104026020016040519081016040528092919081815260200182805460018160011615610100020316600290048015610b095780601f10610ade57610100808354040283529160200191610b09565b820191906000526020600020905b815481529060010190602001808311610aec57829003601f168201915b505050505081565b600681908060018154018082558091505090600182039060005260206000200160009091929091909150555050565b606060038054600181600116156101000203166002900480601f016020809104026020016040519081016040528092919081815260200182805460018160011615610100020316600290048015610bd85780601f10610bad57610100808354040283529160200191610bd8565b820191906000526020600020905b815481529060010190602001808311610bbb57829003601f168201915b5050505050905090565b6000600680549050141515610bf657600080fd5b6000809054906101000a900473ffffffffffffffffffffffffffffffffffffffff1673ffffffffffffffffffffffffffffffffffffffff163373ffffffffffffffffffffffffffffffffffffffff16141515610c5157600080fd5b6000809054906101000a900473ffffffffffffffffffffffffffffffffffffffff1673ffffffffffffffffffffffffffffffffffffffff16ff5b81600c60009054906101000a900473ffffffffffffffffffffffffffffffffffffffff1673ffffffffffffffffffffffffffffffffffffffff163373ffffffffffffffffffffffffffffffffffffffff16141515610ce857600080fd5b6000809054906101000a900473ffffffffffffffffffffffffffffffffffffffff1673ffffffffffffffffffffffffffffffffffffffff168173ffffffffffffffffffffffffffffffffffffffff16141515610d4357600080fd5b8160019080519060200190610d59929190611419565b50505050565b6000600760009054906101000a900460ff16905090565b6000600854905090565b60055481565b60606006805480602002602001604051908101604052809291908181526020018280548015610dd457602002820191906000526020600020905b815481526020019060010190808311610dc0575b5050505050905090565b60008060606000606060008060006060600060606002546000809054906101000a900473ffffffffffffffffffffffffffffffffffffffff1660036008546009600b54600554600760009054906101000a900460ff166001600a546004888054600181600116156101000203166002900480601f016020809104026020016040519081016040528092919081815260200182805460018160011615610100020316600290048015610ed05780601f10610ea557610100808354040283529160200191610ed0565b820191906000526020600020905b815481529060010190602001808311610eb357829003601f168201915b50505050509850868054600181600116156101000203166002900480601f016020809104026020016040519081016040528092919081815260200182805460018160011615610100020316600290048015610f6c5780601f10610f4157610100808354040283529160200191610f6c565b820191906000526020600020905b815481529060010190602001808311610f4f57829003601f168201915b50505050509650828054600181600116156101000203166002900480601f0160208091040260200160405190810160405280929190818152602001828054600181600116156101000203166002900480156110085780601f10610fdd57610100808354040283529160200191611008565b820191906000526020600020905b815481529060010190602001808311610feb57829003601f168201915b50505050509250808054600181600116156101000203166002900480601f0160208091040260200160405190810160405280929190818152602001828054600181600116156101000203166002900480156110a45780601f10611079576101008083540402835291602001916110a4565b820191906000526020600020905b81548152906001019060200180831161108757829003601f168201915b505050505090509a509a509a509a509a509a509a509a509a509a509a50909192939495969798999a565b6000600a54905090565b6006818154811015156110e757fe5b906000526020600020016000915090505481565b60048054600181600116156101000203166002900480601f0160208091040260200160405190810160405280929190818152602001828054600181600116156101000203166002900480156111915780601f1061116657610100808354040283529160200191611191565b820191906000526020600020905b81548152906001019060200180831161117457829003601f168201915b505050505081565b6000600554905090565b60018054600181600116156101000203166002900480601f0160208091040260200160405190810160405280929190818152602001828054600181600116156101000203166002900480156112395780601f1061120e57610100808354040283529160200191611239565b820191906000526020600020905b81548152906001019060200180831161121c57829003601f168201915b505050505081565b60085481565b6000809054906101000a900473ffffffffffffffffffffffffffffffffffffffff1681565b600b5481565b600760009054906101000a900460ff1681565b60025481565b600c60009054906101000a900473ffffffffffffffffffffffffffffffffffffffff1681565b600a5481565b60098054600181600116156101000203166002900480601f01602080910402602001604051908101604052809291908181526020018280546001816001161561010002031660029004801561134d5780601f106113225761010080835404028352916020019161134d565b820191906000526020600020905b81548152906001019060200180831161133057829003601f168201915b505050505081565b81600c60009054906101000a900473ffffffffffffffffffffffffffffffffffffffff1673ffffffffffffffffffffffffffffffffffffffff163373ffffffffffffffffffffffffffffffffffffffff161415156113b257600080fd5b6000809054906101000a900473ffffffffffffffffffffffffffffffffffffffff1673ffffffffffffffffffffffffffffffffffffffff168173ffffffffffffffffffffffffffffffffffffffff1614151561140d57600080fd5b81600881905550505050565b828054600181600116156101000203166002900490600052602060002090601f016020900481019282601f1061145a57805160ff1916838001178555611488565b82800160010185558215611488579182015b8281111561148757825182559160200191906001019061146c565b5b5090506114959190611499565b5090565b6114bb91905b808211156114b757600081600090555060010161149f565b5090565b905600a165627a7a72305820b4d0070013532f837e70cf24fbfd36346a486192f75f68dc671b5e8c84651d0a0029a165627a7a723058203f52a73e0c1536162a9634562f26798d1e08576d635cea5cea3cbd76727086040029",
  "source": "/*\n * Main smart contract, logic entry\n * also is the factory contract for model contract\n * and contest contract\n *\n * @File instruction: constructor, variables, getter, setter\n * @Auther: Chenhan Ma, Kevin, kevinma2222@gmail.com\n */\n\npragma solidity ^0.4.22;\n\nimport './Model.sol';\n\ncontract MarketPlace {\n\n    // Constructor\n    constructor() public{\n      creator = msg.sender;\n    }\n\n\n    // Payable method, will apply in the future\n    function() public payable {}\n\n    /** Built-in model categories\n      * @type - string\n      */\n    string[4] Categories = [\n        \"Image Recognition\",\n        \"Models for image recognition, such as categorizing animals\",\n        \"Medical Diagnosis\",\n        \"Models for disease diagnosis, such as cancer classification\"];\n    int category_count = 4;\n\n\n    /** User struct\n      * @params user_address and balance\n      */\n    struct User {\n        address user_address;\n        int balance;\n    }\n\n\n    // Global data storage for models\n    address creator;\n    int public model_count;                         // Model ID incrementor\n    mapping (address => User) users;                // Users storage\n    mapping (string => int[]) models_by_category;   // Models by category name\n    mapping (address => int[]) models_by_user;      // Models owned by user\n    mapping (int => Model) models;                  // Find model by ID\n    mapping (int => int[]) models_by_contest;       // Models by contest id\n    mapping (int => int[]) children_models;         // Child models by parent\n    int[] indexes;                                  // Model ID storage list\n    mapping (address => int[]) contests;            // Contest IDs by user\n    int public best_submission_index;               // Best model index\n    int public best_submission_accuracy = 0;        // Best model accuracy\n\n\n\n    /************************ Getter Functions ******************************/\n\n    /** Get the category_count value\n      * @return int\n      */\n    function get_count() public view returns(int){\n        return category_count;\n    }\n\n    /** Get the built-in category name and description\n      * @return string\n      */\n    function get_category(int _id) public view returns(string){\n        return Categories[uint(_id)];\n    }\n\n\n\n    /** Get model ID list by a category\n      * @param _category category\n      * @return int[] list of model ID\n      */\n    function get_models_by_category(string _category)\n        public\n        view\n        returns (int[]){\n        int[] storage model_list = models_by_category[_category];\n        return model_list;\n    }\n\n\n    /** Get description of a model\n      * @param _id model id\n      * @return string model description\n      */\n    function get_model_desc(int _id) public view returns(string){\n        return models[_id].get_name();\n    }\n\n\n    /** Get accuracy of a model\n      * @param  _id model id\n      * @return int model accuracy\n      */\n    function get_model_accuracy(int _id) public view returns(int){\n        return models[_id].get_accuracy();\n    }\n\n\n    /** Get model contract address by model id\n      * @param  _id model id\n      * @return address model contract address\n      */\n    function get_model_by_id(int _id) public view returns(address){\n        return models[_id];\n    }\n\n\n    /** Get all the info of a model\n      * @param  _id model id\n      * @return   int id_,\n      *           address owner_,\n      *           string name_,\n      *           int accuracy_,\n      *           string category_,\n      *           int price_,\n      *           int parent_,\n      *           bool genesis_,\n      *           bytes ipfs_,\n      *           int iterationLevel_,\n      *           string description_,\n      */\n    function get_model_all(int _id) public view returns (\n        int id_,\n        address owner_,\n        string name_,\n        int accuracy_,\n        string category_,\n        int price_,\n        int parent_,\n        bool genesis_,\n        bytes ipfs_,\n        int iterationLevel_,\n        string description_)\n    {\n        return models[_id].get_model_all();\n    }\n\n\n    /** Get all model IDs created by a user\n      * @param _user user address\n      * @return int[] a ID list\n      */\n    function get_all_models_by_user(address _user)\n        public\n        view\n        returns (int[]){\n        int[] storage model_list = models_by_user[_user];\n        return model_list;\n    }\n\n\n    /** get the current number of models in the marketplace\n      * @return int number of models\n      */\n    function get_model_count() public view returns(int){\n        return model_count;\n    }\n\n    /** Get the child models by a parent model's ID\n      * @param _id parent model ID\n      * @return int[] child models ID list\n      */\n    function get_models_by_parent(int _id) public view returns (int[]){\n        return children_models[_id];\n    }\n\n\n    /** Get an iteration level of a model\n      * @param _id model ID\n      * @return int iteration level\n      */\n    function get_iterationLevel(int _id) public view returns (int){\n        if (_id == 0){\n            return 1;\n        }\n        return models[_id].get_iterationLevel();\n    }\n\n\n    /************************ Setter Functions ******************************/\n\n\n    /** Create a new model contract\n      * Store ID and contract address in global variables\n      * Update model_count, which is ID incrementor\n      * @return bool successful\n      */\n    function create_model(\n        string _name,\n        int _parent,\n        string _description,\n        bytes _ipfs,\n        int _accuracy,\n        string _category,\n        int _iterationLevel,\n        int _price\n    )\n        public\n        returns (bool)\n    {\n        // Calculate current model ID\n        int id = model_count + 1;\n        // Create new Model\n        Model new_model = new Model(\n            msg.sender, id, _name, _description, _ipfs, _parent, _accuracy,\n            _category, _iterationLevel, _price\n        );\n        // Add new model to global variables\n        models_by_user[msg.sender].push(id);\n        models_by_category[_category].push(id);\n        models[id] = new_model;\n        indexes.push(id);\n        model_count = model_count + 1;\n\n        // Add current model to parent model's children\n        if ( _parent != 0){\n            children_models[_parent].push(id);\n        }\n        return true;\n    }\n\n\n    /** Set IPFS hash of a model\n      * @param _id model id\n      * @param _ipfs ipfs new_address\n      */\n    function set_ipfshash( bytes _ipfs, int _id) public{\n        models[_id].set_ipfs(msg.sender, _ipfs);\n    }\n\n\n    /** Set the model's accuracy\n      * @param _id model ID\n      * @param _accuarcy accuracy\n      */\n    function set_accuracy(int _id, int _accuarcy) public {\n        require(models_by_user[msg.sender].length != 0);\n        models[_id].set_accuracy(msg.sender, _accuarcy);\n        if (_accuarcy > best_submission_accuracy){\n            best_submission_accuracy = _accuarcy;\n            best_submission_index = _id;\n        }\n    }\n\n\n    /** Save user detail into mapping when user login in\n      * @param _account user_account\n      * @return bool successful\n      */\n    function register_user(address _account) public returns (bool) {\n        users[_account] = User(_account, 100);\n        return true;\n    }\n\n\n    /** Add a child model ID to parent model's child model list\n      * @param _parent  model ID\n      * @param _child  model ID\n      * @return bool successful\n      */\n    function append_child(int _parent, int _child) public returns (bool){\n        models[_parent].append_child(_child);\n        return true;\n    }\n\n    // TODO send reward function\n    // TODO contest functions\n}\n",
  "sourcePath": "/Users/machenhan/Documents/FinalProject/git_version/BlockchainRevolution/contracts/MarketPlace.sol",
  "compiler": {
    "name": "solc",
    "version": "0.4.24+commit.e67f0147.Emscripten.clang"
  },
  "schemaVersion": "2.0.0",
  "updatedAt": "2018-06-05T12:34:03.051Z"
}