{
  "contractName": "MarketPlace",
  "abi": [
    {
      "inputs": [],
      "payable": false,
      "stateMutability": "nonpayable",
      "type": "constructor"
    },
    {
      "payable": true,
      "stateMutability": "payable",
      "type": "fallback"
    },
    {
      "constant": false,
      "inputs": [],
      "name": "create_model_contract",
      "outputs": [
        {
          "name": "model_contract",
          "type": "address"
        }
      ],
      "payable": false,
      "stateMutability": "nonpayable",
      "type": "function"
    },
    {
      "constant": false,
      "inputs": [],
      "name": "kill",
      "outputs": [],
      "payable": false,
      "stateMutability": "nonpayable",
      "type": "function"
    },
    {
      "constant": true,
      "inputs": [
        {
          "name": "id",
          "type": "uint256"
        }
      ],
      "name": "get_model",
      "outputs": [
        {
          "name": "",
          "type": "uint256"
        },
        {
          "name": "",
          "type": "bytes32"
        },
        {
          "name": "",
          "type": "int256"
        },
        {
          "name": "",
          "type": "bytes32"
        },
        {
          "name": "",
          "type": "int256"
        }
      ],
      "payable": false,
      "stateMutability": "view",
      "type": "function"
    }
  ],
  "bytecode": "0x6060604052341561000f57600080fd5b33600160006101000a81548173ffffffffffffffffffffffffffffffffffffffff021916908373ffffffffffffffffffffffffffffffffffffffff16021790555061032a8061005f6000396000f300606060405260043610610057576000357c0100000000000000000000000000000000000000000000000000000000900463ffffffff16806327675de61461005957806341c0e1b5146100bc578063624c1ceb146100d1575b005b341561006457600080fd5b61007a6004808035906020019091905050610126565b60405180868152602001856000191660001916815260200184815260200183600019166000191681526020018281526020019550505050505060405180910390f35b34156100c757600080fd5b6100cf610200565b005b34156100dc57600080fd5b6100e4610293565b604051808273ffffffffffffffffffffffffffffffffffffffff1673ffffffffffffffffffffffffffffffffffffffff16815260200191505060405180910390f35b6000806000806000600260009054906101000a900473ffffffffffffffffffffffffffffffffffffffff1673ffffffffffffffffffffffffffffffffffffffff1663a8dee5f7876040518263ffffffff167c01000000000000000000000000000000000000000000000000000000000281526004018082815260200191505060a060405180830381600087803b15156101be57600080fd5b5af115156101cb57600080fd5b505050604051805190602001805190602001805190602001805190602001805190509450945094509450945091939590929450565b600160009054906101000a900473ffffffffffffffffffffffffffffffffffffffff1673ffffffffffffffffffffffffffffffffffffffff163373ffffffffffffffffffffffffffffffffffffffff16141561029157600160009054906101000a900473ffffffffffffffffffffffffffffffffffffffff1673ffffffffffffffffffffffffffffffffffffffff16ff5b565b600033600260006101000a81548173ffffffffffffffffffffffffffffffffffffffff021916908373ffffffffffffffffffffffffffffffffffffffff160217905550600260009054906101000a900473ffffffffffffffffffffffffffffffffffffffff169050905600a165627a7a7230582004cc87a199908ba57997d1bd939b28719b6acd1c2bdd813368ae457525a58e1e0029",
  "source": "pragma solidity ^0.4.18;\n\nimport './Model.sol';\n\ncontract MarketPlace {\n\n  string[] categories;\n  address owner;\n  Model model;\n\n  function MarketPlace() public{\n    owner = msg.sender;\n  }\n\n  function create_model_contract()\n    public\n    returns\n    (address model_contract)\n  {\n    model = Model(msg.sender);\n    return model;\n  }\n\n  function() public payable {}\n\n  struct User {\n    address user_address;\n    bytes[] submitted_data;\n    uint balance;\n\n  }\n\n  mapping (address => User) users;\n\n  function kill() public{\n    if(msg.sender==owner)\n      selfdestruct(owner);\n  }\n\n  /* function upload() public{\n\n  } */\n\n  function get_model(uint id) public view\n    returns(uint, bytes32, int256, bytes32, int256){\n    return model.get_Model(id);\n  }\n}\n",
  "sourcePath": "/Users/machenhan/Documents/FinalProject/git_version/BlockchainRevolution/contracts/MarketPlace.sol",
  "compiler": {
    "name": "solc",
    "version": "0.4.21+commit.dfe3193c.Emscripten.clang"
  },
  "schemaVersion": "2.0.0",
  "updatedAt": "2018-04-23T16:00:05.892Z"
}