{
  "contractName": "Model",
  "abi": [
    {
      "constant": true,
      "inputs": [],
      "name": "parent",
      "outputs": [
        {
          "name": "",
          "type": "uint256"
        }
      ],
      "payable": false,
      "stateMutability": "view",
      "type": "function"
    },
    {
      "constant": true,
      "inputs": [],
      "name": "description",
      "outputs": [
        {
          "name": "",
          "type": "string"
        }
      ],
      "payable": false,
      "stateMutability": "view",
      "type": "function"
    },
    {
      "constant": true,
      "inputs": [],
      "name": "ipfs_address",
      "outputs": [
        {
          "name": "",
          "type": "bytes"
        }
      ],
      "payable": false,
      "stateMutability": "view",
      "type": "function"
    },
    {
      "constant": true,
      "inputs": [],
      "name": "accuracy",
      "outputs": [
        {
          "name": "",
          "type": "int256"
        }
      ],
      "payable": false,
      "stateMutability": "view",
      "type": "function"
    },
    {
      "constant": true,
      "inputs": [],
      "name": "owner",
      "outputs": [
        {
          "name": "",
          "type": "address"
        }
      ],
      "payable": false,
      "stateMutability": "view",
      "type": "function"
    },
    {
      "constant": true,
      "inputs": [],
      "name": "price",
      "outputs": [
        {
          "name": "",
          "type": "int256"
        }
      ],
      "payable": false,
      "stateMutability": "view",
      "type": "function"
    },
    {
      "constant": true,
      "inputs": [],
      "name": "id",
      "outputs": [
        {
          "name": "",
          "type": "uint256"
        }
      ],
      "payable": false,
      "stateMutability": "view",
      "type": "function"
    },
    {
      "inputs": [
        {
          "name": "_owner",
          "type": "address"
        },
        {
          "name": "_id",
          "type": "uint256"
        },
        {
          "name": "_description",
          "type": "string"
        },
        {
          "name": "_ipfs",
          "type": "bytes"
        },
        {
          "name": "_parent",
          "type": "uint256"
        }
      ],
      "payable": false,
      "stateMutability": "nonpayable",
      "type": "constructor"
    },
    {
      "constant": false,
      "inputs": [
        {
          "name": "caller",
          "type": "address"
        },
        {
          "name": "_accuracy",
          "type": "int256"
        }
      ],
      "name": "set_accuracy",
      "outputs": [],
      "payable": false,
      "stateMutability": "nonpayable",
      "type": "function"
    },
    {
      "constant": true,
      "inputs": [],
      "name": "get_accuracy",
      "outputs": [
        {
          "name": "",
          "type": "int256"
        }
      ],
      "payable": false,
      "stateMutability": "view",
      "type": "function"
    },
    {
      "constant": false,
      "inputs": [
        {
          "name": "_child",
          "type": "uint256"
        }
      ],
      "name": "append_child",
      "outputs": [],
      "payable": false,
      "stateMutability": "nonpayable",
      "type": "function"
    },
    {
      "constant": true,
      "inputs": [],
      "name": "get_children",
      "outputs": [
        {
          "name": "",
          "type": "uint256[]"
        }
      ],
      "payable": false,
      "stateMutability": "view",
      "type": "function"
    },
    {
      "constant": true,
      "inputs": [],
      "name": "get_parent",
      "outputs": [
        {
          "name": "",
          "type": "uint256"
        }
      ],
      "payable": false,
      "stateMutability": "view",
      "type": "function"
    },
    {
      "constant": false,
      "inputs": [
        {
          "name": "caller",
          "type": "address"
        },
        {
          "name": "_ipfs",
          "type": "bytes"
        }
      ],
      "name": "set_ipfs",
      "outputs": [],
      "payable": false,
      "stateMutability": "nonpayable",
      "type": "function"
    },
    {
      "constant": true,
      "inputs": [],
      "name": "get_name",
      "outputs": [
        {
          "name": "",
          "type": "string"
        }
      ],
      "payable": false,
      "stateMutability": "view",
      "type": "function"
    },
    {
      "constant": true,
      "inputs": [],
      "name": "get_Model",
      "outputs": [
        {
          "name": "",
          "type": "uint256"
        },
        {
          "name": "",
          "type": "string"
        },
        {
          "name": "",
          "type": "int256"
        },
        {
          "name": "",
          "type": "bytes32"
        },
        {
          "name": "",
          "type": "int256"
        }
      ],
      "payable": false,
      "stateMutability": "view",
      "type": "function"
    },
    {
      "constant": false,
      "inputs": [],
      "name": "kill",
      "outputs": [],
      "payable": false,
      "stateMutability": "nonpayable",
      "type": "function"
    }
  ],
  "bytecode": "0x60806040523480156200001157600080fd5b5060405162000f7438038062000f748339810180604052810190808051906020019092919080519060200190929190805182019291906020018051820192919060200180519060200190929190505050846000806101000a81548173ffffffffffffffffffffffffffffffffffffffff021916908373ffffffffffffffffffffffffffffffffffffffff16021790555033600c60006101000a81548173ffffffffffffffffffffffffffffffffffffffff021916908373ffffffffffffffffffffffffffffffffffffffff1602179055508360028190555082600390805190602001906200010192919062000174565b5081600190805190602001906200011a929190620001fb565b50600081141562000146576001600660006101000a81548160ff02191690831515021790555062000169565b806004819055506000600660006101000a81548160ff0219169083151502179055505b5050505050620002aa565b828054600181600116156101000203166002900490600052602060002090601f016020900481019282601f10620001b757805160ff1916838001178555620001e8565b82800160010185558215620001e8579182015b82811115620001e7578251825591602001919060010190620001ca565b5b509050620001f7919062000282565b5090565b828054600181600116156101000203166002900490600052602060002090601f016020900481019282601f106200023e57805160ff19168380011785556200026f565b828001600101855582156200026f579182015b828111156200026e57825182559160200191906001019062000251565b5b5090506200027e919062000282565b5090565b620002a791905b80821115620002a357600081600090555060010162000289565b5090565b90565b610cba80620002ba6000396000f3006080604052600436106100e6576000357c0100000000000000000000000000000000000000000000000000000000900463ffffffff1680633a525c29146100eb57806341c0e1b51461017b57806347d29189146101925780635193cfc61461021b57806360f96a8f146102465780636112db8f146102715780636b9a6aec1461029e5780637284e4161461030a578063776d340e1461039a5780637842ec0e146103c557806383835c01146104555780638da5cb5b14610480578063a035b1fe146104d7578063af640d0f14610502578063d0c670381461052d578063f8a1acc2146105e1575b600080fd5b3480156100f757600080fd5b5061010061062e565b6040518080602001828103825283818151815260200191508051906020019080838360005b83811015610140578082015181840152602081019050610125565b50505050905090810190601f16801561016d5780820380516001836020036101000a031916815260200191505b509250505060405180910390f35b34801561018757600080fd5b506101906106d0565b005b34801561019e57600080fd5b50610219600480360381019080803573ffffffffffffffffffffffffffffffffffffffff169060200190929190803590602001908201803590602001908080601f0160208091040260200160405190810160405280939291908181526020018383808284378201915050505050509192919290505050610779565b005b34801561022757600080fd5b5061023061084d565b6040518082815260200191505060405180910390f35b34801561025257600080fd5b5061025b610857565b6040518082815260200191505060405180910390f35b34801561027d57600080fd5b5061029c6004803603810190808035906020019092919050505061085d565b005b3480156102aa57600080fd5b506102b361088c565b6040518080602001828103825283818151815260200191508051906020019060200280838360005b838110156102f65780820151818401526020810190506102db565b505050509050019250505060405180910390f35b34801561031657600080fd5b5061031f6108e4565b6040518080602001828103825283818151815260200191508051906020019080838360005b8381101561035f578082015181840152602081019050610344565b50505050905090810190601f16801561038c5780820380516001836020036101000a031916815260200191505b509250505060405180910390f35b3480156103a657600080fd5b506103af610982565b6040518082815260200191505060405180910390f35b3480156103d157600080fd5b506103da61098c565b6040518080602001828103825283818151815260200191508051906020019080838360005b8381101561041a5780820151818401526020810190506103ff565b50505050905090810190601f1680156104475780820380516001836020036101000a031916815260200191505b509250505060405180910390f35b34801561046157600080fd5b5061046a610a2a565b6040518082815260200191505060405180910390f35b34801561048c57600080fd5b50610495610a30565b604051808273ffffffffffffffffffffffffffffffffffffffff1673ffffffffffffffffffffffffffffffffffffffff16815260200191505060405180910390f35b3480156104e357600080fd5b506104ec610a55565b6040518082815260200191505060405180910390f35b34801561050e57600080fd5b50610517610a5b565b6040518082815260200191505060405180910390f35b34801561053957600080fd5b50610542610a61565b60405180868152602001806020018581526020018460001916600019168152602001838152602001828103825286818151815260200191508051906020019080838360005b838110156105a2578082015181840152602081019050610587565b50505050905090810190601f1680156105cf5780820380516001836020036101000a031916815260200191505b50965050505050505060405180910390f35b3480156105ed57600080fd5b5061062c600480360381019080803573ffffffffffffffffffffffffffffffffffffffff16906020019092919080359060200190929190505050610b25565b005b606060038054600181600116156101000203166002900480601f0160208091040260200160405190810160405280929190818152602001828054600181600116156101000203166002900480156106c65780601f1061069b576101008083540402835291602001916106c6565b820191906000526020600020905b8154815290600101906020018083116106a957829003601f168201915b5050505050905090565b60006005805490501415156106e457600080fd5b6000809054906101000a900473ffffffffffffffffffffffffffffffffffffffff1673ffffffffffffffffffffffffffffffffffffffff163373ffffffffffffffffffffffffffffffffffffffff1614151561073f57600080fd5b6000809054906101000a900473ffffffffffffffffffffffffffffffffffffffff1673ffffffffffffffffffffffffffffffffffffffff16ff5b81600c60009054906101000a900473ffffffffffffffffffffffffffffffffffffffff1673ffffffffffffffffffffffffffffffffffffffff163373ffffffffffffffffffffffffffffffffffffffff161415156107d657600080fd5b6000809054906101000a900473ffffffffffffffffffffffffffffffffffffffff1673ffffffffffffffffffffffffffffffffffffffff168173ffffffffffffffffffffffffffffffffffffffff1614151561083157600080fd5b8160019080519060200190610847929190610be9565b50505050565b6000600754905090565b60045481565b600581908060018154018082558091505090600182039060005260206000200160009091929091909150555050565b606060058054806020026020016040519081016040528092919081815260200182805480156108da57602002820191906000526020600020905b8154815260200190600101908083116108c6575b5050505050905090565b60038054600181600116156101000203166002900480601f01602080910402602001604051908101604052809291908181526020018280546001816001161561010002031660029004801561097a5780601f1061094f5761010080835404028352916020019161097a565b820191906000526020600020905b81548152906001019060200180831161095d57829003601f168201915b505050505081565b6000600454905090565b60018054600181600116156101000203166002900480601f016020809104026020016040519081016040528092919081815260200182805460018160011615610100020316600290048015610a225780601f106109f757610100808354040283529160200191610a22565b820191906000526020600020905b815481529060010190602001808311610a0557829003601f168201915b505050505081565b60075481565b6000809054906101000a900473ffffffffffffffffffffffffffffffffffffffff1681565b600b5481565b60025481565b6000606060008060006002546003600754600854600b54838054600181600116156101000203166002900480601f016020809104026020016040519081016040528092919081815260200182805460018160011615610100020316600290048015610b0d5780601f10610ae257610100808354040283529160200191610b0d565b820191906000526020600020905b815481529060010190602001808311610af057829003601f168201915b50505050509350945094509450945094509091929394565b81600c60009054906101000a900473ffffffffffffffffffffffffffffffffffffffff1673ffffffffffffffffffffffffffffffffffffffff163373ffffffffffffffffffffffffffffffffffffffff16141515610b8257600080fd5b6000809054906101000a900473ffffffffffffffffffffffffffffffffffffffff1673ffffffffffffffffffffffffffffffffffffffff168173ffffffffffffffffffffffffffffffffffffffff16141515610bdd57600080fd5b81600781905550505050565b828054600181600116156101000203166002900490600052602060002090601f016020900481019282601f10610c2a57805160ff1916838001178555610c58565b82800160010185558215610c58579182015b82811115610c57578251825591602001919060010190610c3c565b5b509050610c659190610c69565b5090565b610c8b91905b80821115610c87576000816000905550600101610c6f565b5090565b905600a165627a7a7230582051a8925a2065f57a5fa8f43e0326ed671e28ea1e28cbeded87afa52af4563a8e0029",
  "source": "pragma solidity ^0.4.22;\n\ncontract Model {\n  address public owner;\n  bytes public ipfs_address;\n  uint public id;\n  string public description;\n  uint public parent;\n  uint[] children;\n  bool genesis;\n  int256 public accuracy;\n  bytes32 category;\n  uint level;\n  uint count;\n  int256 public price;\n  address factory;\n\n\n  // Constructor\n  constructor(\n      address _owner, uint _id, string _description, bytes _ipfs, uint _parent)\n      public {\n    owner = _owner;\n    factory = msg.sender;\n    id = _id;\n    description = _description;\n    ipfs_address = _ipfs;\n\n    if(uint(_parent) == 0){\n        genesis = true;\n    }else{\n        parent = _parent;\n        genesis = false;\n    }\n  }\n\n  modifier isOwner(address _caller) {\n      require(msg.sender == factory);\n      require(_caller == owner);\n      _;\n  }\n\n    function set_accuracy(address caller, int256 _accuracy) public isOwner(caller) {\n       accuracy  = _accuracy;\n    }\n\n    function get_accuracy() public view returns(int256){\n        return accuracy;\n    }\n\n  function append_child(uint _child) public{\n      children.push(_child);\n  }\n\n  function get_children() public view returns (uint[]){\n    return children;\n  }\n\n  function get_parent() public view returns (uint){\n    return parent;\n  }\n\n    function set_ipfs(address caller, bytes _ipfs) public isOwner(caller){\n        ipfs_address = _ipfs;\n    }\n\n  function get_name() public view returns(string){\n      return description;\n  }\n\n  function get_Model() public constant returns(uint, string, int256, bytes32, int256){\n\n    return (id, description, accuracy, category, price);\n  }\n\n    function kill() public {\n        require(children.length==0);\n        require(msg.sender == owner);\n        selfdestruct(owner);\n    }\n}\n",
  "sourcePath": "/Users/machenhan/Documents/FinalProject/git_version/BlockchainRevolution/contracts/Model.sol",
  "compiler": {
    "name": "solc",
    "version": "0.4.24+commit.e67f0147.Emscripten.clang"
  },
  "schemaVersion": "2.0.0",
  "updatedAt": "2018-05-23T16:06:00.130Z"
}