{
  "contractName": "Model",
  "abi": [
    {
      "constant": true,
      "inputs": [],
      "name": "best_submission_index",
      "outputs": [
        {
          "name": "",
          "type": "uint256"
        }
      ],
      "payable": false,
      "stateMutability": "view",
      "type": "function"
    },
    {
      "constant": true,
      "inputs": [],
      "name": "organizer",
      "outputs": [
        {
          "name": "",
          "type": "address"
        }
      ],
      "payable": false,
      "stateMutability": "view",
      "type": "function"
    },
    {
      "constant": true,
      "inputs": [],
      "name": "best_submission_accuracy",
      "outputs": [
        {
          "name": "",
          "type": "int256"
        }
      ],
      "payable": false,
      "stateMutability": "view",
      "type": "function"
    },
    {
      "constant": true,
      "inputs": [],
      "name": "modelCount",
      "outputs": [
        {
          "name": "",
          "type": "uint256"
        }
      ],
      "payable": false,
      "stateMutability": "view",
      "type": "function"
    },
    {
      "constant": true,
      "inputs": [
        {
          "name": "",
          "type": "uint256"
        }
      ],
      "name": "categories",
      "outputs": [
        {
          "name": "",
          "type": "bytes32"
        }
      ],
      "payable": false,
      "stateMutability": "view",
      "type": "function"
    },
    {
      "inputs": [],
      "payable": false,
      "stateMutability": "nonpayable",
      "type": "constructor"
    },
    {
      "constant": false,
      "inputs": [
        {
          "name": "category",
          "type": "bytes32"
        }
      ],
      "name": "get_model_from_category",
      "outputs": [
        {
          "name": "",
          "type": "uint256[]"
        },
        {
          "name": "",
          "type": "int256[]"
        }
      ],
      "payable": false,
      "stateMutability": "nonpayable",
      "type": "function"
    },
    {
      "constant": false,
      "inputs": [
        {
          "name": "new_category",
          "type": "bytes32"
        }
      ],
      "name": "add_category",
      "outputs": [
        {
          "name": "",
          "type": "bool"
        }
      ],
      "payable": false,
      "stateMutability": "nonpayable",
      "type": "function"
    },
    {
      "constant": true,
      "inputs": [
        {
          "name": "category",
          "type": "bytes32"
        }
      ],
      "name": "check_category",
      "outputs": [
        {
          "name": "exist",
          "type": "bool"
        }
      ],
      "payable": false,
      "stateMutability": "view",
      "type": "function"
    },
    {
      "constant": true,
      "inputs": [],
      "name": "get_model_count",
      "outputs": [
        {
          "name": "count",
          "type": "uint256"
        }
      ],
      "payable": false,
      "stateMutability": "view",
      "type": "function"
    },
    {
      "constant": false,
      "inputs": [
        {
          "name": "parent",
          "type": "uint256"
        },
        {
          "name": "node",
          "type": "uint256"
        }
      ],
      "name": "insert_node",
      "outputs": [],
      "payable": false,
      "stateMutability": "nonpayable",
      "type": "function"
    },
    {
      "constant": true,
      "inputs": [
        {
          "name": "node",
          "type": "uint256"
        }
      ],
      "name": "get_children",
      "outputs": [
        {
          "name": "child",
          "type": "uint256[]"
        }
      ],
      "payable": false,
      "stateMutability": "view",
      "type": "function"
    },
    {
      "constant": true,
      "inputs": [
        {
          "name": "node",
          "type": "uint256"
        }
      ],
      "name": "get_parent",
      "outputs": [
        {
          "name": "parent",
          "type": "uint256"
        }
      ],
      "payable": false,
      "stateMutability": "view",
      "type": "function"
    },
    {
      "constant": true,
      "inputs": [
        {
          "name": "node",
          "type": "uint256"
        }
      ],
      "name": "get_Model",
      "outputs": [
        {
          "name": "",
          "type": "uint256"
        },
        {
          "name": "",
          "type": "bytes32"
        },
        {
          "name": "",
          "type": "int256"
        },
        {
          "name": "",
          "type": "bytes32"
        },
        {
          "name": "",
          "type": "int256"
        }
      ],
      "payable": false,
      "stateMutability": "view",
      "type": "function"
    }
  ],
  "bytecode": "0x60606040526000600355341561001457600080fd5b336000806101000a81548173ffffffffffffffffffffffffffffffffffffffff021916908373ffffffffffffffffffffffffffffffffffffffff160217905550610c9e806100636000396000f3006060604052600436106100c5576000357c0100000000000000000000000000000000000000000000000000000000900463ffffffff1680630af42371146100ca5780631afbca12146100f357806323bcaad114610132578063515ced53146101f6578063545ceefa1461021f57806361203265146102975780636d48ae25146102ec5780638c89ba4114610315578063933c6a3a14610341578063a8dee5f714610380578063c6a645fe146103e3578063c6cdbe5e1461040c578063fd67c7801461044b575b600080fd5b34156100d557600080fd5b6100dd610482565b6040518082815260200191505060405180910390f35b34156100fe57600080fd5b61011860048080356000191690602001909190505061048c565b604051808215151515815260200191505060405180910390f35b341561013d57600080fd5b61015760048080356000191690602001909190505061051a565b604051808060200180602001838103835285818151815260200191508051906020019060200280838360005b8381101561019e578082015181840152602081019050610183565b50505050905001838103825284818151815260200191508051906020019060200280838360005b838110156101e05780820151818401526020810190506101c5565b5050505090500194505050505060405180910390f35b341561020157600080fd5b610209610671565b6040518082815260200191505060405180910390f35b341561022a57600080fd5b6102406004808035906020019091905050610677565b6040518080602001828103825283818151815260200191508051906020019060200280838360005b83811015610283578082015181840152602081019050610268565b505050509050019250505060405180910390f35b34156102a257600080fd5b6102aa6106eb565b604051808273ffffffffffffffffffffffffffffffffffffffff1673ffffffffffffffffffffffffffffffffffffffff16815260200191505060405180910390f35b34156102f757600080fd5b6102ff610711565b6040518082815260200191505060405180910390f35b341561032057600080fd5b61033f6004808035906020019091908035906020019091905050610717565b005b341561034c57600080fd5b6103666004808035600019169060200190919050506107a9565b604051808215151515815260200191505060405180910390f35b341561038b57600080fd5b6103a16004808035906020019091905050610843565b60405180868152602001856000191660001916815260200184815260200183600019166000191681526020018281526020019550505050505060405180910390f35b34156103ee57600080fd5b6103f6610a22565b6040518082815260200191505060405180910390f35b341561041757600080fd5b61042d6004808035906020019091905050610a28565b60405180826000191660001916815260200191505060405180910390f35b341561045657600080fd5b61046c6004808035906020019091905050610a4c565b6040518082815260200191505060405180910390f35b6000600454905090565b6000610496610a6c565b600015156104a3846107a9565b15151415156104b157600080fd5b8060076000856000191660001916815260200190815260200160002090805190602001906104e0929190610a80565b50600580548060010182816104f59190610acd565b9160005260206000209001600085909190915090600019169055506001915050919050565b610522610a6c565b61052a610af9565b610532610a6c565b60008060076000876000191660001916815260200190815260200160002080548060200260200160405190810160405280929190818152602001828054801561059a57602002820191906000526020600020905b815481526020019060010190808311610586575b50505050509250600090505b8251811015610611578180548060010182816105c29190610b0d565b916000526020600020900160006006600087868151811015156105e157fe5b906020019060200201518152602001908152602001600020600601549091909150555080806001019150506105a6565b82828080548060200260200160405190810160405280929190818152602001828054801561065e57602002820191906000526020600020905b81548152602001906001019080831161064a575b5050505050905094509450505050915091565b60025481565b61067f610a6c565b600660008381526020019081526020016000206004018054806020026020016040519081016040528092919081815260200182805480156106df57602002820191906000526020600020905b8154815260200190600101908083116106cb575b50505050509050919050565b600160009054906101000a900473ffffffffffffffffffffffffffffffffffffffff1681565b60035481565b81600660008381526020019081526020016000206003018190555060066000838152602001908152602001600020600401805480600101828161075a9190610b39565b9160005260206000209001600083909190915055506001600460008282540192505081905550600160066000848152602001908152602001600020600a01600082825401925050819055505050565b600080600090505b60058054905081101561083857826040518082600019166000191681526020019150506040518091039020600019166005828154811015156107ef57fe5b906000526020600020900154604051808260001916600019168152602001915050604051809103902060001916141561082b576000915061083d565b80806001019150506107b1565b600191505b50919050565b6000806000806000610853610b65565b600660008881526020019081526020016000206101806040519081016040529081600082018054600181600116156101000203166002900480601f01602080910402602001604051908101604052809291908181526020018280546001816001161561010002031660029004801561090c5780601f106108e15761010080835404028352916020019161090c565b820191906000526020600020905b8154815290600101906020018083116108ef57829003601f168201915b5050505050815260200160018201548152602001600282015460001916600019168152602001600382015481526020016004820180548060200260200160405190810160405280929190818152602001828054801561098a57602002820191906000526020600020905b815481526020019060010190808311610976575b505050505081526020016005820160009054906101000a900460ff16151515158152602001600682015481526020016007820154600019166000191681526020016008820154815260200160098201548152602001600a8201548152602001600b820154815250509050806020015181604001518260c001518360e00151846101600151955095509550955095505091939590929450565b60045481565b600581815481101515610a3757fe5b90600052602060002090016000915090505481565b600060066000838152602001908152602001600020600301549050919050565b602060405190810160405280600081525090565b828054828255906000526020600020908101928215610abc579160200282015b82811115610abb578251825591602001919060010190610aa0565b5b509050610ac99190610bdb565b5090565b815481835581811511610af457818360005260206000209182019101610af39190610c00565b5b505050565b602060405190810160405280600081525090565b815481835581811511610b3457818360005260206000209182019101610b339190610c25565b5b505050565b815481835581811511610b6057818360005260206000209182019101610b5f9190610bdb565b5b505050565b61018060405190810160405280610b7a610c4a565b8152602001600081526020016000801916815260200160008152602001610b9f610c5e565b81526020016000151581526020016000815260200160008019168152602001600081526020016000815260200160008152602001600081525090565b610bfd91905b80821115610bf9576000816000905550600101610be1565b5090565b90565b610c2291905b80821115610c1e576000816000905550600101610c06565b5090565b90565b610c4791905b80821115610c43576000816000905550600101610c2b565b5090565b90565b602060405190810160405280600081525090565b6020604051908101604052806000815250905600a165627a7a72305820f73c42dd4c5bd6c5ab2ba79829f1281c39a8524b9031c983e9cae1bd876433180029",
  "source": "pragma solidity ^0.4.18;\n\ncontract Model {\n  address owner;\n  function Model() public {\n    owner = msg.sender;\n  }\n\n\n  struct Node {\n    bytes ipfs_address;\n    uint id;\n    bytes32 description;\n    uint parent;\n    uint[] children;\n    bool genesis;\n    int256 accuracy;\n    bytes32 category;\n    uint level;\n    uint count;\n    uint childrenCount;\n    int256 price;\n  }\n\n  address public organizer;\n  uint public best_submission_index;\n  int256 public best_submission_accuracy = 0;\n  uint public modelCount;\n  bytes32[] public categories;\n\n  mapping (uint => Node) nodes;\n  mapping (bytes32 => uint[]) categoryModels;\n\n\n  function get_model_from_category(bytes32 category)\n    public\n    returns (uint[] , int256[])\n  {\n    uint[] memory models = categoryModels[category];\n    int256[] storage accuracies;\n\n    for(uint i = 0; i<models.length; i++){\n      accuracies.push(nodes[models[i]].accuracy);\n    }\n    return (models, accuracies);\n  }\n\n\n  function add_category(bytes32 new_category)\n    public\n    returns (bool)\n  {\n    require(check_category(new_category)==false);\n    uint[] memory temp;\n    categoryModels[new_category] = temp;\n    categories.push(new_category);\n    return true;\n  }\n\n\n  function check_category(bytes32 category)\n    public view\n    returns (bool exist)\n  {\n    for (uint i = 0; i < categories.length; i++){\n      if(keccak256(categories[i]) == keccak256(category)){\n        return false;\n      }\n    }\n    return true;\n  }\n\n  // For now Solidity can't return variably-sized data\n  /* function get_categories() public view returns (string[] categories){\n\n  }  */\n\n  function get_model_count() public view returns(uint count){\n    return modelCount;\n  }\n\n  function insert_node(uint parent, uint node) public {\n    nodes[node].parent = parent;\n    nodes[parent].children.push(node);\n    modelCount += 1;\n    nodes[parent].childrenCount += 1;\n  }\n\n  function get_children(uint node) public view returns (uint[] child){\n    return nodes[node].children;\n  }\n\n  function get_parent(uint node) public view returns (uint parent){\n    return nodes[node].parent;\n  }\n\n  function get_Model(uint node) public constant returns(uint, bytes32, int256, bytes32, int256){\n    Node memory node_ = nodes[node];\n    return (node_.id, node_.description, node_.accuracy, node_.category, node_.price);\n  }\n}\n",
  "sourcePath": "/Users/machenhan/Documents/FinalProject/git_version/BlockchainRevolution/contracts/Model.sol",
  "compiler": {
    "name": "solc",
    "version": "0.4.21+commit.dfe3193c.Emscripten.clang"
  },
  "schemaVersion": "2.0.0",
  "updatedAt": "2018-04-23T16:00:05.894Z"
}