{
  "contractName": "Model",
  "abi": [
    {
      "constant": true,
      "inputs": [],
      "name": "best_submission_index",
      "outputs": [
        {
          "name": "",
          "type": "uint256"
        }
      ],
      "payable": false,
      "stateMutability": "view",
      "type": "function"
    },
    {
      "constant": true,
      "inputs": [],
      "name": "organizer",
      "outputs": [
        {
          "name": "",
          "type": "address"
        }
      ],
      "payable": false,
      "stateMutability": "view",
      "type": "function"
    },
    {
      "constant": true,
      "inputs": [
        {
          "name": "",
          "type": "uint256"
        }
      ],
      "name": "models",
      "outputs": [
        {
          "name": "",
          "type": "uint256"
        }
      ],
      "payable": false,
      "stateMutability": "view",
      "type": "function"
    },
    {
      "constant": true,
      "inputs": [],
      "name": "best_submission_accuracy",
      "outputs": [
        {
          "name": "",
          "type": "int256"
        }
      ],
      "payable": false,
      "stateMutability": "view",
      "type": "function"
    },
    {
      "constant": true,
      "inputs": [
        {
          "name": "",
          "type": "uint256"
        }
      ],
      "name": "categories",
      "outputs": [
        {
          "name": "",
          "type": "bytes32"
        }
      ],
      "payable": false,
      "stateMutability": "view",
      "type": "function"
    },
    {
      "inputs": [],
      "payable": false,
      "stateMutability": "nonpayable",
      "type": "constructor"
    },
    {
      "constant": true,
      "inputs": [
        {
          "name": "category",
          "type": "bytes32"
        }
      ],
      "name": "get_model_from_category",
      "outputs": [
        {
          "name": "",
          "type": "uint256[]"
        }
      ],
      "payable": false,
      "stateMutability": "view",
      "type": "function"
    },
    {
      "constant": false,
      "inputs": [
        {
          "name": "new_category",
          "type": "bytes32"
        }
      ],
      "name": "add_category",
      "outputs": [
        {
          "name": "",
          "type": "bool"
        }
      ],
      "payable": false,
      "stateMutability": "nonpayable",
      "type": "function"
    },
    {
      "constant": true,
      "inputs": [
        {
          "name": "category",
          "type": "bytes32"
        }
      ],
      "name": "check_category",
      "outputs": [
        {
          "name": "exist",
          "type": "bool"
        }
      ],
      "payable": false,
      "stateMutability": "view",
      "type": "function"
    },
    {
      "constant": true,
      "inputs": [],
      "name": "get_model_count",
      "outputs": [
        {
          "name": "count",
          "type": "uint256"
        }
      ],
      "payable": false,
      "stateMutability": "view",
      "type": "function"
    },
    {
      "constant": false,
      "inputs": [
        {
          "name": "parent",
          "type": "uint256"
        },
        {
          "name": "node",
          "type": "uint256"
        }
      ],
      "name": "insert_node",
      "outputs": [],
      "payable": false,
      "stateMutability": "nonpayable",
      "type": "function"
    },
    {
      "constant": true,
      "inputs": [
        {
          "name": "node",
          "type": "uint256"
        }
      ],
      "name": "get_children",
      "outputs": [
        {
          "name": "child",
          "type": "uint256[]"
        }
      ],
      "payable": false,
      "stateMutability": "view",
      "type": "function"
    },
    {
      "constant": true,
      "inputs": [
        {
          "name": "node",
          "type": "uint256"
        }
      ],
      "name": "get_parent",
      "outputs": [
        {
          "name": "parent",
          "type": "uint256"
        }
      ],
      "payable": false,
      "stateMutability": "view",
      "type": "function"
    },
    {
      "constant": true,
      "inputs": [
        {
          "name": "node",
          "type": "uint256"
        }
      ],
      "name": "get_Model",
      "outputs": [
        {
          "name": "",
          "type": "uint256"
        },
        {
          "name": "",
          "type": "bytes32"
        },
        {
          "name": "",
          "type": "int256"
        },
        {
          "name": "",
          "type": "bytes32"
        },
        {
          "name": "",
          "type": "int256"
        }
      ],
      "payable": false,
      "stateMutability": "view",
      "type": "function"
    }
  ],
  "bytecode": "0x60606040526000600355341561001457600080fd5b336000806101000a81548173ffffffffffffffffffffffffffffffffffffffff021916908373ffffffffffffffffffffffffffffffffffffffff160217905550610afb806100636000396000f3006060604052600436106100c5576000357c0100000000000000000000000000000000000000000000000000000000900463ffffffff1680630af42371146100ca5780631afbca12146100f357806323bcaad114610132578063515ced53146101ae578063545ceefa146101d7578063612032651461024f5780636a030ca9146102a45780636d48ae25146102db5780638c89ba4114610304578063933c6a3a14610330578063a8dee5f71461036f578063c6cdbe5e146103d2578063fd67c78014610411575b600080fd5b34156100d557600080fd5b6100dd610448565b6040518082815260200191505060405180910390f35b34156100fe57600080fd5b610118600480803560001916906020019091905050610455565b604051808215151515815260200191505060405180910390f35b341561013d57600080fd5b6101576004808035600019169060200190919050506104e3565b6040518080602001828103825283818151815260200191508051906020019060200280838360005b8381101561019a57808201518184015260208101905061017f565b505050509050019250505060405180910390f35b34156101b957600080fd5b6101c161055c565b6040518082815260200191505060405180910390f35b34156101e257600080fd5b6101f86004808035906020019091905050610562565b6040518080602001828103825283818151815260200191508051906020019060200280838360005b8381101561023b578082015181840152602081019050610220565b505050509050019250505060405180910390f35b341561025a57600080fd5b6102626105d6565b604051808273ffffffffffffffffffffffffffffffffffffffff1673ffffffffffffffffffffffffffffffffffffffff16815260200191505060405180910390f35b34156102af57600080fd5b6102c560048080359060200190919050506105fc565b6040518082815260200191505060405180910390f35b34156102e657600080fd5b6102ee610620565b6040518082815260200191505060405180910390f35b341561030f57600080fd5b61032e6004808035906020019091908035906020019091905050610626565b005b341561033b57600080fd5b610355600480803560001916906020019091905050610682565b604051808215151515815260200191505060405180910390f35b341561037a57600080fd5b610390600480803590602001909190505061071c565b60405180868152602001856000191660001916815260200184815260200183600019166000191681526020018281526020019550505050505060405180910390f35b34156103dd57600080fd5b6103f360048080359060200190919050506108f1565b60405180826000191660001916815260200191505060405180910390f35b341561041c57600080fd5b6104326004808035906020019091905050610915565b6040518082815260200191505060405180910390f35b6000600680549050905090565b600061045f610935565b6000151561046c84610682565b151514151561047a57600080fd5b8060076000856000191660001916815260200190815260200160002090805190602001906104a9929190610949565b50600480548060010182816104be9190610996565b9160005260206000209001600085909190915090600019169055506001915050919050565b6104eb610935565b60076000836000191660001916815260200190815260200160002080548060200260200160405190810160405280929190818152602001828054801561055057602002820191906000526020600020905b81548152602001906001019080831161053c575b50505050509050919050565b60025481565b61056a610935565b600560008381526020019081526020016000206004018054806020026020016040519081016040528092919081815260200182805480156105ca57602002820191906000526020600020905b8154815260200190600101908083116105b6575b50505050509050919050565b600160009054906101000a900473ffffffffffffffffffffffffffffffffffffffff1681565b60068181548110151561060b57fe5b90600052602060002090016000915090505481565b60035481565b81600560008381526020019081526020016000206003018190555060056000838152602001908152602001600020600401805480600101828161066991906109c2565b9160005260206000209001600083909190915055505050565b600080600090505b60048054905081101561071157826040518082600019166000191681526020019150506040518091039020600019166004828154811015156106c857fe5b90600052602060002090015460405180826000191660001916815260200191505060405180910390206000191614156107045760009150610716565b808060010191505061068a565b600191505b50919050565b600080600080600061072c6109ee565b600560008881526020019081526020016000206101606040519081016040529081600082018054600181600116156101000203166002900480601f0160208091040260200160405190810160405280929190818152602001828054600181600116156101000203166002900480156107e55780601f106107ba576101008083540402835291602001916107e5565b820191906000526020600020905b8154815290600101906020018083116107c857829003601f168201915b5050505050815260200160018201548152602001600282015460001916600019168152602001600382015481526020016004820180548060200260200160405190810160405280929190818152602001828054801561086357602002820191906000526020600020905b81548152602001906001019080831161084f575b505050505081526020016005820160009054906101000a900460ff16151515158152602001600682015481526020016007820154600019166000191681526020016008820154815260200160098201548152602001600a820154815250509050806020015181604001518260c001518360e00151846101400151955095509550955095505091939590929450565b60048181548110151561090057fe5b90600052602060002090016000915090505481565b600060056000838152602001908152602001600020600301549050919050565b602060405190810160405280600081525090565b828054828255906000526020600020908101928215610985579160200282015b82811115610984578251825591602001919060010190610969565b5b5090506109929190610a5d565b5090565b8154818355818115116109bd578183600052602060002091820191016109bc9190610a82565b5b505050565b8154818355818115116109e9578183600052602060002091820191016109e89190610a5d565b5b505050565b61016060405190810160405280610a03610aa7565b8152602001600081526020016000801916815260200160008152602001610a28610abb565b815260200160001515815260200160008152602001600080191681526020016000815260200160008152602001600081525090565b610a7f91905b80821115610a7b576000816000905550600101610a63565b5090565b90565b610aa491905b80821115610aa0576000816000905550600101610a88565b5090565b90565b602060405190810160405280600081525090565b6020604051908101604052806000815250905600a165627a7a72305820e18a546896d46da8a5e1e3253e153d96fde8d40d2f27fbd9d0cd45192d374aed0029",
  "source": "pragma solidity ^0.4.18;\n\ncontract Model {\n  address owner;\n  function Model() public {\n    owner = msg.sender;\n  }\n\n\n  struct Node {\n    bytes ipfs_address;\n    uint id;\n    bytes32 description;\n    uint parent;\n    uint[] children;\n    bool genesis;\n    int256 accuracy;\n    bytes32 category;\n    uint level;\n    uint count;\n    int256 price;\n  }\n\n  address public organizer;\n  uint public best_submission_index;\n  int256 public best_submission_accuracy = 0;\n  bytes32[] public categories;\n\n  mapping (uint => Node) nodes;\n  uint[] public models;\n  mapping (bytes32 => uint[]) categoryModels;\n\n\n  function get_model_from_category(bytes32 category)\n    view public\n    returns (uint[])\n  {\n    return categoryModels[category];\n  }\n\n\n  function add_category(bytes32 new_category)\n    public\n    returns (bool)\n  {\n    require(check_category(new_category)==false);\n    uint[] memory temp;\n    categoryModels[new_category] = temp;\n    categories.push(new_category);\n    return true;\n  }\n\n\n  function check_category(bytes32 category)\n    public view\n    returns (bool exist)\n  {\n    for (uint i = 0; i < categories.length; i++){\n      if(keccak256(categories[i]) == keccak256(category)){\n        return false;\n      }\n    }\n    return true;\n  }\n\n  // For now Solidity can't return variably-sized data\n  /* function get_categories() public view returns (string[] categories){\n\n  }  */\n\n  function get_model_count() public view returns(uint count){\n    return models.length;\n  }\n\n  function insert_node(uint parent, uint node) public {\n    nodes[node].parent = parent;\n    nodes[parent].children.push(node);\n  }\n\n  function get_children(uint node) public view returns (uint[] child){\n    return nodes[node].children;\n  }\n\n  function get_parent(uint node) public view returns (uint parent){\n    return nodes[node].parent;\n  }\n\n  function get_Model(uint node) public constant returns(uint, bytes32, int256, bytes32, int256){\n    Node memory node_ = nodes[node];\n    return (node_.id, node_.description, node_.accuracy, node_.category, node_.price);\n  }\n}\n",
  "sourcePath": "/Users/machenhan/Documents/FinalProject/git_version/BlockchainRevolution/contracts/Model.sol",
  "compiler": {
    "name": "solc",
    "version": "0.4.21+commit.dfe3193c.Emscripten.clang"
  },
  "schemaVersion": "2.0.0",
  "updatedAt": "2018-04-30T13:24:32.604Z"
}