{
  "contractName": "Model",
  "abi": [
    {
      "constant": true,
      "inputs": [],
      "name": "name",
      "outputs": [
        {
          "name": "",
          "type": "string"
        }
      ],
      "payable": false,
      "stateMutability": "view",
      "type": "function"
    },
    {
      "constant": true,
      "inputs": [],
      "name": "parent",
      "outputs": [
        {
          "name": "",
          "type": "int256"
        }
      ],
      "payable": false,
      "stateMutability": "view",
      "type": "function"
    },
    {
      "constant": true,
      "inputs": [
        {
          "name": "",
          "type": "uint256"
        }
      ],
      "name": "children",
      "outputs": [
        {
          "name": "",
          "type": "int256"
        }
      ],
      "payable": false,
      "stateMutability": "view",
      "type": "function"
    },
    {
      "constant": true,
      "inputs": [],
      "name": "description",
      "outputs": [
        {
          "name": "",
          "type": "string"
        }
      ],
      "payable": false,
      "stateMutability": "view",
      "type": "function"
    },
    {
      "constant": true,
      "inputs": [],
      "name": "ipfs_address",
      "outputs": [
        {
          "name": "",
          "type": "bytes"
        }
      ],
      "payable": false,
      "stateMutability": "view",
      "type": "function"
    },
    {
      "constant": true,
      "inputs": [],
      "name": "accuracy",
      "outputs": [
        {
          "name": "",
          "type": "int256"
        }
      ],
      "payable": false,
      "stateMutability": "view",
      "type": "function"
    },
    {
      "constant": true,
      "inputs": [],
      "name": "owner",
      "outputs": [
        {
          "name": "",
          "type": "address"
        }
      ],
      "payable": false,
      "stateMutability": "view",
      "type": "function"
    },
    {
      "constant": true,
      "inputs": [],
      "name": "price",
      "outputs": [
        {
          "name": "",
          "type": "int256"
        }
      ],
      "payable": false,
      "stateMutability": "view",
      "type": "function"
    },
    {
      "constant": true,
      "inputs": [],
      "name": "genesis",
      "outputs": [
        {
          "name": "",
          "type": "bool"
        }
      ],
      "payable": false,
      "stateMutability": "view",
      "type": "function"
    },
    {
      "constant": true,
      "inputs": [],
      "name": "id",
      "outputs": [
        {
          "name": "",
          "type": "int256"
        }
      ],
      "payable": false,
      "stateMutability": "view",
      "type": "function"
    },
    {
      "constant": true,
      "inputs": [],
      "name": "factory",
      "outputs": [
        {
          "name": "",
          "type": "address"
        }
      ],
      "payable": false,
      "stateMutability": "view",
      "type": "function"
    },
    {
      "constant": true,
      "inputs": [],
      "name": "iterationLevel",
      "outputs": [
        {
          "name": "",
          "type": "int256"
        }
      ],
      "payable": false,
      "stateMutability": "view",
      "type": "function"
    },
    {
      "constant": true,
      "inputs": [],
      "name": "category",
      "outputs": [
        {
          "name": "",
          "type": "string"
        }
      ],
      "payable": false,
      "stateMutability": "view",
      "type": "function"
    },
    {
      "inputs": [
        {
          "name": "_owner",
          "type": "address"
        },
        {
          "name": "_id",
          "type": "int256"
        },
        {
          "name": "_name",
          "type": "string"
        },
        {
          "name": "_description",
          "type": "string"
        },
        {
          "name": "_ipfs",
          "type": "bytes"
        },
        {
          "name": "_parent",
          "type": "int256"
        },
        {
          "name": "_accuracy",
          "type": "int256"
        },
        {
          "name": "_category",
          "type": "string"
        },
        {
          "name": "_iterationLevel",
          "type": "int256"
        },
        {
          "name": "_price",
          "type": "int256"
        }
      ],
      "payable": false,
      "stateMutability": "nonpayable",
      "type": "constructor"
    },
    {
      "constant": true,
      "inputs": [],
      "name": "get_model_all",
      "outputs": [
        {
          "name": "id_",
          "type": "int256"
        },
        {
          "name": "owner_",
          "type": "address"
        },
        {
          "name": "name_",
          "type": "string"
        },
        {
          "name": "accuracy_",
          "type": "int256"
        },
        {
          "name": "category_",
          "type": "string"
        },
        {
          "name": "price_",
          "type": "int256"
        },
        {
          "name": "parent_",
          "type": "int256"
        },
        {
          "name": "genesis_",
          "type": "bool"
        },
        {
          "name": "ipfs_",
          "type": "bytes"
        },
        {
          "name": "iterationLevel_",
          "type": "int256"
        },
        {
          "name": "description_",
          "type": "string"
        }
      ],
      "payable": false,
      "stateMutability": "view",
      "type": "function"
    },
    {
      "constant": true,
      "inputs": [],
      "name": "get_accuracy",
      "outputs": [
        {
          "name": "",
          "type": "int256"
        }
      ],
      "payable": false,
      "stateMutability": "view",
      "type": "function"
    },
    {
      "constant": false,
      "inputs": [
        {
          "name": "_child",
          "type": "int256"
        }
      ],
      "name": "append_child",
      "outputs": [],
      "payable": false,
      "stateMutability": "nonpayable",
      "type": "function"
    },
    {
      "constant": true,
      "inputs": [],
      "name": "get_children",
      "outputs": [
        {
          "name": "",
          "type": "int256[]"
        }
      ],
      "payable": false,
      "stateMutability": "view",
      "type": "function"
    },
    {
      "constant": true,
      "inputs": [],
      "name": "get_parent",
      "outputs": [
        {
          "name": "",
          "type": "int256"
        }
      ],
      "payable": false,
      "stateMutability": "view",
      "type": "function"
    },
    {
      "constant": true,
      "inputs": [],
      "name": "get_name",
      "outputs": [
        {
          "name": "",
          "type": "string"
        }
      ],
      "payable": false,
      "stateMutability": "view",
      "type": "function"
    },
    {
      "constant": true,
      "inputs": [],
      "name": "get_iterationLevel",
      "outputs": [
        {
          "name": "",
          "type": "int256"
        }
      ],
      "payable": false,
      "stateMutability": "view",
      "type": "function"
    },
    {
      "constant": true,
      "inputs": [],
      "name": "get_genesis",
      "outputs": [
        {
          "name": "",
          "type": "bool"
        }
      ],
      "payable": false,
      "stateMutability": "view",
      "type": "function"
    },
    {
      "constant": false,
      "inputs": [
        {
          "name": "caller",
          "type": "address"
        },
        {
          "name": "_ipfs",
          "type": "bytes"
        }
      ],
      "name": "set_ipfs",
      "outputs": [],
      "payable": false,
      "stateMutability": "nonpayable",
      "type": "function"
    },
    {
      "constant": false,
      "inputs": [
        {
          "name": "caller",
          "type": "address"
        },
        {
          "name": "_accuracy",
          "type": "int256"
        }
      ],
      "name": "set_accuracy",
      "outputs": [],
      "payable": false,
      "stateMutability": "nonpayable",
      "type": "function"
    },
    {
      "constant": false,
      "inputs": [],
      "name": "kill",
      "outputs": [],
      "payable": false,
      "stateMutability": "nonpayable",
      "type": "function"
    }
  ],
  "bytecode": "0x60806040523480156200001157600080fd5b50604051620018293803806200182983398101806040528101908080519060200190929190805190602001909291908051820192919060200180518201929190602001805182019291906020018051906020019092919080519060200190929190805182019291906020018051906020019092919080519060200190929190505050896000806101000a81548173ffffffffffffffffffffffffffffffffffffffff021916908373ffffffffffffffffffffffffffffffffffffffff16021790555033600c60006101000a81548173ffffffffffffffffffffffffffffffffffffffff021916908373ffffffffffffffffffffffffffffffffffffffff16021790555088600281905550876003908051906020019062000133929190620001f9565b5086600490805190602001906200014c929190620001f9565b5085600190805190602001906200016592919062000280565b50846005819055508360088190555082600990805190602001906200018c929190620001f9565b5081600a8190555080600b819055506000851415620001c6576001600760006101000a81548160ff021916908315150217905550620001e9565b846005819055506000600760006101000a81548160ff0219169083151502179055505b505050505050505050506200032f565b828054600181600116156101000203166002900490600052602060002090601f016020900481019282601f106200023c57805160ff19168380011785556200026d565b828001600101855582156200026d579182015b828111156200026c5782518255916020019190600101906200024f565b5b5090506200027c919062000307565b5090565b828054600181600116156101000203166002900490600052602060002090601f016020900481019282601f10620002c357805160ff1916838001178555620002f4565b82800160010185558215620002f4579182015b82811115620002f3578251825591602001919060010190620002d6565b5b50905062000303919062000307565b5090565b6200032c91905b80821115620003285760008160009055506001016200030e565b5090565b90565b6114ea806200033f6000396000f30060806040526004361061013e576000357c0100000000000000000000000000000000000000000000000000000000900463ffffffff16806306fdde03146101435780632ee8d3d5146101d35780633a525c291461020057806341c0e1b51461029057806347d29189146102a75780634a17b0d6146103305780635193cfc61461035f57806360f96a8f1461038a5780636b9a6aec146103b55780636d09d3b5146104215780636e4dcafe146106565780637002ce42146106815780637284e416146106c2578063776d340e146107525780637842ec0e1461077d57806383835c011461080d5780638da5cb5b14610838578063a035b1fe1461088f578063a7f0b3de146108ba578063af640d0f146108e9578063c45a015514610914578063ebc729f71461096b578063ef430aa614610996578063f8a1acc214610a26575b600080fd5b34801561014f57600080fd5b50610158610a73565b6040518080602001828103825283818151815260200191508051906020019080838360005b8381101561019857808201518184015260208101905061017d565b50505050905090810190601f1680156101c55780820380516001836020036101000a031916815260200191505b509250505060405180910390f35b3480156101df57600080fd5b506101fe60048036038101908080359060200190929190505050610b11565b005b34801561020c57600080fd5b50610215610b40565b6040518080602001828103825283818151815260200191508051906020019080838360005b8381101561025557808201518184015260208101905061023a565b50505050905090810190601f1680156102825780820380516001836020036101000a031916815260200191505b509250505060405180910390f35b34801561029c57600080fd5b506102a5610be2565b005b3480156102b357600080fd5b5061032e600480360381019080803573ffffffffffffffffffffffffffffffffffffffff169060200190929190803590602001908201803590602001908080601f0160208091040260200160405190810160405280939291908181526020018383808284378201915050505050509192919290505050610c8b565b005b34801561033c57600080fd5b50610345610d5f565b604051808215151515815260200191505060405180910390f35b34801561036b57600080fd5b50610374610d76565b6040518082815260200191505060405180910390f35b34801561039657600080fd5b5061039f610d80565b6040518082815260200191505060405180910390f35b3480156103c157600080fd5b506103ca610d86565b6040518080602001828103825283818151815260200191508051906020019060200280838360005b8381101561040d5780820151818401526020810190506103f2565b505050509050019250505060405180910390f35b34801561042d57600080fd5b50610436610dde565b604051808c81526020018b73ffffffffffffffffffffffffffffffffffffffff1673ffffffffffffffffffffffffffffffffffffffff168152602001806020018a81526020018060200189815260200188815260200187151515158152602001806020018681526020018060200185810385528e818151815260200191508051906020019080838360005b838110156104dc5780820151818401526020810190506104c1565b50505050905090810190601f1680156105095780820380516001836020036101000a031916815260200191505b5085810384528c818151815260200191508051906020019080838360005b83811015610542578082015181840152602081019050610527565b50505050905090810190601f16801561056f5780820380516001836020036101000a031916815260200191505b50858103835288818151815260200191508051906020019080838360005b838110156105a857808201518184015260208101905061058d565b50505050905090810190601f1680156105d55780820380516001836020036101000a031916815260200191505b50858103825286818151815260200191508051906020019080838360005b8381101561060e5780820151818401526020810190506105f3565b50505050905090810190601f16801561063b5780820380516001836020036101000a031916815260200191505b509f5050505050505050505050505050505060405180910390f35b34801561066257600080fd5b5061066b6110ce565b6040518082815260200191505060405180910390f35b34801561068d57600080fd5b506106ac600480360381019080803590602001909291905050506110d8565b6040518082815260200191505060405180910390f35b3480156106ce57600080fd5b506106d76110fb565b6040518080602001828103825283818151815260200191508051906020019080838360005b838110156107175780820151818401526020810190506106fc565b50505050905090810190601f1680156107445780820380516001836020036101000a031916815260200191505b509250505060405180910390f35b34801561075e57600080fd5b50610767611199565b6040518082815260200191505060405180910390f35b34801561078957600080fd5b506107926111a3565b6040518080602001828103825283818151815260200191508051906020019080838360005b838110156107d25780820151818401526020810190506107b7565b50505050905090810190601f1680156107ff5780820380516001836020036101000a031916815260200191505b509250505060405180910390f35b34801561081957600080fd5b50610822611241565b6040518082815260200191505060405180910390f35b34801561084457600080fd5b5061084d611247565b604051808273ffffffffffffffffffffffffffffffffffffffff1673ffffffffffffffffffffffffffffffffffffffff16815260200191505060405180910390f35b34801561089b57600080fd5b506108a461126c565b6040518082815260200191505060405180910390f35b3480156108c657600080fd5b506108cf611272565b604051808215151515815260200191505060405180910390f35b3480156108f557600080fd5b506108fe611285565b6040518082815260200191505060405180910390f35b34801561092057600080fd5b5061092961128b565b604051808273ffffffffffffffffffffffffffffffffffffffff1673ffffffffffffffffffffffffffffffffffffffff16815260200191505060405180910390f35b34801561097757600080fd5b506109806112b1565b6040518082815260200191505060405180910390f35b3480156109a257600080fd5b506109ab6112b7565b6040518080602001828103825283818151815260200191508051906020019080838360005b838110156109eb5780820151818401526020810190506109d0565b50505050905090810190601f168015610a185780820380516001836020036101000a031916815260200191505b509250505060405180910390f35b348015610a3257600080fd5b50610a71600480360381019080803573ffffffffffffffffffffffffffffffffffffffff16906020019092919080359060200190929190505050611355565b005b60038054600181600116156101000203166002900480601f016020809104026020016040519081016040528092919081815260200182805460018160011615610100020316600290048015610b095780601f10610ade57610100808354040283529160200191610b09565b820191906000526020600020905b815481529060010190602001808311610aec57829003601f168201915b505050505081565b600681908060018154018082558091505090600182039060005260206000200160009091929091909150555050565b606060038054600181600116156101000203166002900480601f016020809104026020016040519081016040528092919081815260200182805460018160011615610100020316600290048015610bd85780601f10610bad57610100808354040283529160200191610bd8565b820191906000526020600020905b815481529060010190602001808311610bbb57829003601f168201915b5050505050905090565b6000600680549050141515610bf657600080fd5b6000809054906101000a900473ffffffffffffffffffffffffffffffffffffffff1673ffffffffffffffffffffffffffffffffffffffff163373ffffffffffffffffffffffffffffffffffffffff16141515610c5157600080fd5b6000809054906101000a900473ffffffffffffffffffffffffffffffffffffffff1673ffffffffffffffffffffffffffffffffffffffff16ff5b81600c60009054906101000a900473ffffffffffffffffffffffffffffffffffffffff1673ffffffffffffffffffffffffffffffffffffffff163373ffffffffffffffffffffffffffffffffffffffff16141515610ce857600080fd5b6000809054906101000a900473ffffffffffffffffffffffffffffffffffffffff1673ffffffffffffffffffffffffffffffffffffffff168173ffffffffffffffffffffffffffffffffffffffff16141515610d4357600080fd5b8160019080519060200190610d59929190611419565b50505050565b6000600760009054906101000a900460ff16905090565b6000600854905090565b60055481565b60606006805480602002602001604051908101604052809291908181526020018280548015610dd457602002820191906000526020600020905b815481526020019060010190808311610dc0575b5050505050905090565b60008060606000606060008060006060600060606002546000809054906101000a900473ffffffffffffffffffffffffffffffffffffffff1660036008546009600b54600554600760009054906101000a900460ff166001600a546004888054600181600116156101000203166002900480601f016020809104026020016040519081016040528092919081815260200182805460018160011615610100020316600290048015610ed05780601f10610ea557610100808354040283529160200191610ed0565b820191906000526020600020905b815481529060010190602001808311610eb357829003601f168201915b50505050509850868054600181600116156101000203166002900480601f016020809104026020016040519081016040528092919081815260200182805460018160011615610100020316600290048015610f6c5780601f10610f4157610100808354040283529160200191610f6c565b820191906000526020600020905b815481529060010190602001808311610f4f57829003601f168201915b50505050509650828054600181600116156101000203166002900480601f0160208091040260200160405190810160405280929190818152602001828054600181600116156101000203166002900480156110085780601f10610fdd57610100808354040283529160200191611008565b820191906000526020600020905b815481529060010190602001808311610feb57829003601f168201915b50505050509250808054600181600116156101000203166002900480601f0160208091040260200160405190810160405280929190818152602001828054600181600116156101000203166002900480156110a45780601f10611079576101008083540402835291602001916110a4565b820191906000526020600020905b81548152906001019060200180831161108757829003601f168201915b505050505090509a509a509a509a509a509a509a509a509a509a509a50909192939495969798999a565b6000600a54905090565b6006818154811015156110e757fe5b906000526020600020016000915090505481565b60048054600181600116156101000203166002900480601f0160208091040260200160405190810160405280929190818152602001828054600181600116156101000203166002900480156111915780601f1061116657610100808354040283529160200191611191565b820191906000526020600020905b81548152906001019060200180831161117457829003601f168201915b505050505081565b6000600554905090565b60018054600181600116156101000203166002900480601f0160208091040260200160405190810160405280929190818152602001828054600181600116156101000203166002900480156112395780601f1061120e57610100808354040283529160200191611239565b820191906000526020600020905b81548152906001019060200180831161121c57829003601f168201915b505050505081565b60085481565b6000809054906101000a900473ffffffffffffffffffffffffffffffffffffffff1681565b600b5481565b600760009054906101000a900460ff1681565b60025481565b600c60009054906101000a900473ffffffffffffffffffffffffffffffffffffffff1681565b600a5481565b60098054600181600116156101000203166002900480601f01602080910402602001604051908101604052809291908181526020018280546001816001161561010002031660029004801561134d5780601f106113225761010080835404028352916020019161134d565b820191906000526020600020905b81548152906001019060200180831161133057829003601f168201915b505050505081565b81600c60009054906101000a900473ffffffffffffffffffffffffffffffffffffffff1673ffffffffffffffffffffffffffffffffffffffff163373ffffffffffffffffffffffffffffffffffffffff161415156113b257600080fd5b6000809054906101000a900473ffffffffffffffffffffffffffffffffffffffff1673ffffffffffffffffffffffffffffffffffffffff168173ffffffffffffffffffffffffffffffffffffffff1614151561140d57600080fd5b81600881905550505050565b828054600181600116156101000203166002900490600052602060002090601f016020900481019282601f1061145a57805160ff1916838001178555611488565b82800160010185558215611488579182015b8281111561148757825182559160200191906001019061146c565b5b5090506114959190611499565b5090565b6114bb91905b808211156114b757600081600090555060010161149f565b5090565b905600a165627a7a72305820b4d0070013532f837e70cf24fbfd36346a486192f75f68dc671b5e8c84651d0a0029",
  "source": "/*\n * Model contract\n * Each model contract represents a model\n * The method in this contract can be called using the model contract\n * e.g. address.get_count()\n *\n * @File instruction: constructor, variables, getter, setter\n * @Auther: Chenhan Ma, Kevin, kevinma2222@gmail.com\n */\n\npragma solidity ^0.4.22;\n\ncontract Model {\n    address public owner;       // Model creator\n    bytes public ipfs_address;  // IPFS storage address of current model\n    int public id;              // Unique identifier of models\n    string public name;         // Model name\n    string public description;  // Model description\n    int public parent;          // Parent model ID, 0 if current model is Genesis\n    int[] public children;      // Deprecated List of subordinate model IDs\n    bool public genesis;        // Boolean if genesis model\n    int public accuracy;        // Float type model accuracy\n    string public category;     // Model belonged category\n    int public iterationLevel;  // Level of current model in its tree\n    int public price;           // Model price set by the creator\n    address public factory;     // Factory contract address\n\n\n    // Constructor\n    constructor(\n        address _owner,\n        int _id,\n        string _name,\n        string _description,\n        bytes _ipfs,\n        int _parent,\n        int _accuracy,\n        string _category,\n        int _iterationLevel,\n        int _price\n    )\n        public\n    {\n        owner          = _owner;\n        factory        = msg.sender;\n        id             = _id;\n        name           = _name;\n        description    = _description;\n        ipfs_address   = _ipfs;\n        parent         = _parent;\n        accuracy       = _accuracy;\n        category       = _category;\n        iterationLevel = _iterationLevel;\n        price          = _price;\n\n        // Set parent and bool type genesis model\n        if(int(_parent) == 0){\n            genesis = true;\n        }else{\n            parent = _parent;\n            genesis = false;\n        }\n    }\n\n\n    /** Modifier\n      * @param _caller caller of this method\n      */\n    modifier isOwner(address _caller) {\n        require(msg.sender == factory);\n        require(_caller == owner);\n        _;\n    }\n\n\n    /** Get All Data of current model\n      * returns a tuple of 11 elements\n      * can be accessed using index\n      */\n    function get_model_all() public constant\n    returns(\n        int id_,\n        address owner_,\n        string name_,\n        int accuracy_,\n        string category_,\n        int price_,\n        int parent_,\n        bool genesis_,\n        bytes ipfs_,\n        int iterationLevel_,\n        string description_\n    )\n    {\n        return (\n        id,\n        owner,\n        name,\n        accuracy,\n        category,\n        price,\n        parent,\n        genesis,\n        ipfs_address,\n        iterationLevel,\n        description\n        );\n    }\n\n\n    /** get model accuracy\n      * @return model accuracy\n      */\n    function get_accuracy() public view returns(int){\n        return accuracy;\n    }\n\n\n    /** Deprecated\n      * Append child model to parent\n      *\n      */\n    function append_child(int _child) public{\n        children.push(_child);\n    }\n\n\n    /** Deprecated\n      * Get model child list\n      */\n    function get_children() public view returns (int[]){\n        return children;\n    }\n\n\n    /** Get the parent model id of current model\n      * @return int parent id\n      */\n    function get_parent() public view returns (int){\n        return parent;\n    }\n\n\n    /** Get model name\n      * @return model name\n      */\n    function get_name() public view returns(string){\n        return name;\n    }\n\n\n    /** Get model's level in the tree\n      * @return model iteration level\n      */\n    function get_iterationLevel() public view returns (int) {\n        return iterationLevel;\n    }\n\n\n    /** Get model if genesis or not\n      * @return bool is genesis\n      */\n    function get_genesis() public view returns (bool){\n        return genesis;\n    }\n\n\n    /** Set model ipfs address\n      * @param caller caller address\n      * @param _ipfs model new ipfs\n      */\n    function set_ipfs(address caller, bytes _ipfs) public isOwner(caller){\n        ipfs_address = _ipfs;\n    }\n\n\n    /** Set model accuracy\n      * @param caller category\n      * @param _accuracy model accuracy\n      */\n    function set_accuracy(address caller, int _accuracy) public isOwner(caller) {\n        accuracy  = _accuracy;\n    }\n\n\n    /** Delete current model\n      * Not used for now\n      */\n    function kill() public {\n        require(children.length==0);\n        require(msg.sender == owner);\n        selfdestruct(owner);\n    }\n}\n",
  "sourcePath": "/Users/machenhan/Documents/FinalProject/git_version/BlockchainRevolution/contracts/Model.sol",
  "compiler": {
    "name": "solc",
    "version": "0.4.24+commit.e67f0147.Emscripten.clang"
  },
  "schemaVersion": "2.0.0",
  "updatedAt": "2018-06-05T12:34:03.043Z"
}