{
  "contractName": "Model",
  "abi": [
    {
      "constant": true,
      "inputs": [],
      "name": "best_submission_index",
      "outputs": [
        {
          "name": "",
          "type": "uint256"
        }
      ],
      "payable": false,
      "stateMutability": "view",
      "type": "function"
    },
    {
      "constant": true,
      "inputs": [],
      "name": "organizer",
      "outputs": [
        {
          "name": "",
          "type": "address"
        }
      ],
      "payable": false,
      "stateMutability": "view",
      "type": "function"
    },
    {
      "constant": true,
      "inputs": [],
      "name": "best_submission_accuracy",
      "outputs": [
        {
          "name": "",
          "type": "int256"
        }
      ],
      "payable": false,
      "stateMutability": "view",
      "type": "function"
    },
    {
      "constant": true,
      "inputs": [],
      "name": "modelCount",
      "outputs": [
        {
          "name": "",
          "type": "uint256"
        }
      ],
      "payable": false,
      "stateMutability": "view",
      "type": "function"
    },
    {
      "inputs": [],
      "payable": false,
      "stateMutability": "nonpayable",
      "type": "constructor"
    },
    {
      "constant": true,
      "inputs": [],
      "name": "get_totalModel",
      "outputs": [
        {
          "name": "count",
          "type": "uint256"
        }
      ],
      "payable": false,
      "stateMutability": "view",
      "type": "function"
    },
    {
      "constant": false,
      "inputs": [
        {
          "name": "parent",
          "type": "uint256"
        },
        {
          "name": "node",
          "type": "uint256"
        }
      ],
      "name": "insert_node",
      "outputs": [],
      "payable": false,
      "stateMutability": "nonpayable",
      "type": "function"
    },
    {
      "constant": true,
      "inputs": [
        {
          "name": "node",
          "type": "uint256"
        }
      ],
      "name": "get_children",
      "outputs": [
        {
          "name": "child",
          "type": "uint256[]"
        }
      ],
      "payable": false,
      "stateMutability": "view",
      "type": "function"
    },
    {
      "constant": true,
      "inputs": [
        {
          "name": "node",
          "type": "uint256"
        }
      ],
      "name": "get_parent",
      "outputs": [
        {
          "name": "parent",
          "type": "uint256"
        }
      ],
      "payable": false,
      "stateMutability": "view",
      "type": "function"
    },
    {
      "constant": true,
      "inputs": [
        {
          "name": "node",
          "type": "uint256"
        }
      ],
      "name": "get_Model",
      "outputs": [
        {
          "name": "",
          "type": "uint256"
        },
        {
          "name": "",
          "type": "string"
        },
        {
          "name": "",
          "type": "int256"
        },
        {
          "name": "",
          "type": "string"
        },
        {
          "name": "",
          "type": "int256"
        }
      ],
      "payable": false,
      "stateMutability": "view",
      "type": "function"
    }
  ],
  "bytecode": "0x60606040526000600355341561001457600080fd5b336000806101000a81548173ffffffffffffffffffffffffffffffffffffffff021916908373ffffffffffffffffffffffffffffffffffffffff1602179055506108a4806100636000396000f300606060405260043610610099576000357c0100000000000000000000000000000000000000000000000000000000900463ffffffff168063515ced531461009e578063524e07d1146100c7578063545ceefa146100f057806361203265146101685780636d48ae25146101bd5780638c89ba41146101e6578063a8dee5f714610212578063c6a645fe1461032f578063fd67c78014610358575b600080fd5b34156100a957600080fd5b6100b161038f565b6040518082815260200191505060405180910390f35b34156100d257600080fd5b6100da610395565b6040518082815260200191505060405180910390f35b34156100fb57600080fd5b610111600480803590602001909190505061039f565b6040518080602001828103825283818151815260200191508051906020019060200280838360005b83811015610154578082015181840152602081019050610139565b505050509050019250505060405180910390f35b341561017357600080fd5b61017b610413565b604051808273ffffffffffffffffffffffffffffffffffffffff1673ffffffffffffffffffffffffffffffffffffffff16815260200191505060405180910390f35b34156101c857600080fd5b6101d0610439565b6040518082815260200191505060405180910390f35b34156101f157600080fd5b610210600480803590602001909190803590602001909190505061043f565b005b341561021d57600080fd5b61023360048080359060200190919050506104d1565b604051808681526020018060200185815260200180602001848152602001838103835287818151815260200191508051906020019080838360005b8381101561028957808201518184015260208101905061026e565b50505050905090810190601f1680156102b65780820380516001836020036101000a031916815260200191505b50838103825285818151815260200191508051906020019080838360005b838110156102ef5780820151818401526020810190506102d4565b50505050905090810190601f16801561031c5780820380516001836020036101000a031916815260200191505b5097505050505050505060405180910390f35b341561033a57600080fd5b610342610742565b6040518082815260200191505060405180910390f35b341561036357600080fd5b6103796004808035906020019091905050610748565b6040518082815260200191505060405180910390f35b60025481565b6000600454905090565b6103a7610768565b6005600083815260200190815260200160002060030180548060200260200160405190810160405280929190818152602001828054801561040757602002820191906000526020600020905b8154815260200190600101908083116103f3575b50505050509050919050565b600160009054906101000a900473ffffffffffffffffffffffffffffffffffffffff1681565b60035481565b816005600083815260200190815260200160002060020181905550600560008381526020019081526020016000206003018054806001018281610482919061077c565b9160005260206000209001600083909190915055506001600460008282540192505081905550600160056000848152602001908152602001600020600901600082825401925050819055505050565b60006104db6107a8565b60006104e56107a8565b60006104ef6107bc565b60056000888152602001908152602001600020610160604051908101604052908160008201548152602001600182018054600181600116156101000203166002900480601f0160208091040260200160405190810160405280929190818152602001828054600181600116156101000203166002900480156105b25780601f10610587576101008083540402835291602001916105b2565b820191906000526020600020905b81548152906001019060200180831161059557829003601f168201915b50505050508152602001600282015481526020016003820180548060200260200160405190810160405280929190818152602001828054801561061457602002820191906000526020600020905b815481526020019060010190808311610600575b505050505081526020016004820160009054906101000a900460ff1615151515815260200160058201548152602001600682018054600181600116156101000203166002900480601f0160208091040260200160405190810160405280929190818152602001828054600181600116156101000203166002900480156106db5780601f106106b0576101008083540402835291602001916106db565b820191906000526020600020905b8154815290600101906020018083116106be57829003601f168201915b50505050508152602001600782015481526020016008820154815260200160098201548152602001600a820154815250509050806000015181602001518260a001518360c00151846101400151839350819150955095509550955095505091939590929450565b60045481565b600060056000838152602001908152602001600020600201549050919050565b602060405190810160405280600081525090565b8154818355818115116107a3578183600052602060002091820191016107a2919061082b565b5b505050565b602060405190810160405280600081525090565b61016060405190810160405280600081526020016107d8610850565b8152602001600081526020016107ec610864565b815260200160001515815260200160008152602001610809610850565b8152602001600081526020016000815260200160008152602001600081525090565b61084d91905b80821115610849576000816000905550600101610831565b5090565b90565b602060405190810160405280600081525090565b6020604051908101604052806000815250905600a165627a7a7230582040249fc38191218fa0552f4942d75612cbc732d746c244597361f2f2c195967f0029",
  "source": "pragma solidity ^0.4.18;\n\ncontract Model {\n  address owner;\n  function Model() public {\n    owner = msg.sender;\n  }\n\n\n  struct Node {\n    uint id;\n    string description;\n    uint parent;\n    uint[] children;\n    bool genesis;\n    int256 accurarcy;\n    string category;\n    uint level;\n    uint count;\n    uint childrenCount;\n    int256 price;\n  }\n\n  address public organizer;\n  uint public best_submission_index;\n  int256 public best_submission_accuracy = 0;\n  uint public modelCount;\n\n  mapping (uint => Node) nodes;\n\n  function get_totalModel() public view returns(uint count){\n    return modelCount;\n  }\n\n  function insert_node(uint parent, uint node) public {\n    nodes[node].parent = parent;\n    nodes[parent].children.push(node);\n    modelCount += 1;\n    nodes[parent].childrenCount += 1;\n  }\n\n  function get_children(uint node) public view returns (uint[] child){\n    return nodes[node].children;\n  }\n\n  function get_parent(uint node) public view returns (uint parent){\n    return nodes[node].parent;\n  }\n\n  function get_Model(uint node) public constant returns(uint, string, int256, string, int256){\n    Node memory node_ = nodes[node];\n    return (node_.id, node_.description, node_.accurarcy, node_.category, node_.price);\n  }\n}\n",
  "sourcePath": "/Users/machenhan/Documents/FinalProject/git_version/BlockchainRevolution/contracts/Model.sol",
  "compiler": {
    "name": "solc",
    "version": "0.4.21+commit.dfe3193c.Emscripten.clang"
  },
  "schemaVersion": "2.0.0",
  "updatedAt": "2018-04-23T05:45:29.446Z"
}